:020000040000fa
:080000000002040000000000f2
:020000040000fa
:100400008fd121000e7f22000e0188000000000025
:100410000c00070060672800010020000f000700a3
:10042000000020000000e000020032000000020096
:100430000000000048850200000000000040da00d3
:100440000000fe00606520000000e00002003200b5
:10045000002020009001880000000600a102880012
:10046000800078000000eb001a003700e2804000b6
:1004700054a0b4009101ba00e280400054a0b4003e
:100480009102ba00e280400054a0b4000002eb00e8
:10049000472bde00f507b200a6018800602ce100c2
:1004a00008003a000049eb000201e80002003900b0
:1004b0003420ec0002f0a0008301e900f9ff3e00c7
:1004c000040037006128e100010032000082eb00e7
:1004d000040007001101ba000200e000e3ff3a0047
:1004e0000000060004d0a300e20f49001c00390000
:1004f000810278003549ba000201e80002003900a3
:100500003420ec0002f0a0008301e9000f0032006b
:100510002549ba000201e800020039003420ec004d
:1005200002f0a0008301e900080032000400e000ae
:100530000600320015c9ba000201e80002003900c5
:100540003420ec0002f0a0008301e9008180e80083
:1005500054a0b4000300e000e2ff3a0000000600ef
:100560009102ba00055978008301e900f7ff3200d3
:10057000c82ade00055978008301e900f3ff320044
:100580000400e000f1ff320011d9ba00eeff37009d
:100590000040da000000fe0003f0a200889fbe00c9
:1005a0008a9fbe008c1f7800ac000700b3003300a8
:1005b0006450e1004f0032006420e100520032003c
:1005c00003826c0007003b000905d0000306d00041
:1005d000820f54000c065d00020039000200320058
:1005e00089017800030678008582550004003d00eb
:1005f0000003fd008103fd008502ea008b854200b7
:10060000840f720002003b0060001000e0801800c0
:100610006011b8000005eb007a28e1000a003900fb
:1006200006007800c75ddd00f707b200878075001f
:100630002d003700828171000a0178006105600099
:100640008180d1000080d3008502e900f9ff3b00e2
:10065000060440008784480002003b006004140048
:10066000e0841c000988a300070032008a81710021
:1006700082817100610164008904d1000884d30083
:100680008b05e800170037000978a30013003a0033
:100690000b00e000130034008b05e900080444005f
:1006a00089844c000a4474000978a3000d003a00c4
:1006b0000b00e000070034008b05e900080444004b
:1006c00089844c0001003a000b0020000978a30047
:1006d000f7ff32000001eb00020037008281710059
:1006e0000a017800370007000cf0a70001f0a00015
:1006f0006b0037006420e10002003a00838f6c0039
:100700006b0033000801be000200be006400370029
:10071000f4ff2f0069003700889fbe008a9fbe004b
:10072000010578000100e0000400350008003c00ed
:100730000000e000200032000500370060001000db
:10074000e080180002003b0001f02c001a00370086
:100750000004be006011b8006b0920000982cf00c0
:10076000020039000882cf000441b0006942520003
:100770000e00320008003b008281710061016400bc
:100780008904d1000884d3008b05e8000442e80006
:10079000f9ff3a00050037000804440089844c0042
:1007a0008b05e9000442e900fbff3a000500070061
:1007b0000af0a70001f0a0004f05be004f04be00e4
:1007c0000000060081002000618055000b003d0004
:1007d0000b00200061fe2f000100e1001d0034002d
:1007e00082817100610164008904d1000884d30012
:1007f0000000e800faff3a00710020006100640088
:10080000030070000200600009003200610444002f
:10081000e0844c000988a500050032008b05e80043
:100820006808e10002003a008904d1000884d3007e
:10083000f20f20000258e10005003d00c75ddd0019
:10084000f907b200898075000800780000000600f2
:100850000bf827008b007800000005000004be00a4
:10086000310007000003be000405be000200be0008
:100870002d000700844f7500000006000200be0036
:100880006450e100050036006420e10002003600fb
:100890000968a30001003a000800be000160a00042
:1008a0004f0678004f05be004f04be000000060052
:1008b000f0ff2f00f1ff2700f9ff3700889fbe00ef
:1008c0008a9fbe00841f7800e4ff07004f00780075
:1008d00011003300f0ff2f00838f6c0006003b00f7
:1008e000040565000a00a7000800370009f0a6000b
:1008f0001000200008003700820f5400838f5c0036
:10090000030039001000200001003e00000020001c
:1009100009f0a7000000ea004f05be004f04be002a
:100920000000e00000000600c70ade00f107b20088
:10093000f50fb20008003200e1cf420002003200a1
:100940000170a00024000500810f7000010032003a
:100950000408050044000500810f700002003a0001
:10096000140005008502e9000000400081c0480035
:10097000fcff3b000170a000240005000400fa0009
:10098000e0bf9f00e4815700812978000002eb005e
:100990000f0037006fb89700904078007fb897003d
:1009a000104078000402e80080cf500004003200bc
:1009b0008180fb000080fb000080500007003700b2
:1009c0006fb897000000e800e0bf9f009309e800bf
:1009d000820f5200efff3a000000eb000080fa00a7
:1009e000000006008001eb000200370061f0790092
:1009f0008301e800828f5100fcff3a0000000600ee
:100a0000889fbe008a9fbe008c9fbe0000017800b8
:100a1000619221001100e0000b003a00a092210039
:100a200030c9880010c9880051c9880021c98800d0
:100a3000214090000004a000a04098006140900078
:100a40000004a000e0409800e7004100c208de007a
:100a5000c20cdd0024c980000d93210080d121004b
:100a60000d05500022002000811f780011000900b0
:100a70000205d80000067800cf007800c308dd002a
:100a8000e48540008001eb0006932100659221007f
:100a90000100370001027800244090000008a30004
:100aa000020032000a003700110a78009400780032
:100ab000214090000008a300fbff32000901420022
:100ac000828f500002003900840f5100460031002f
:100ad00094007800848f5000eeff3e00868f500017
:100ae00002003900858f5000eaff390010c98000ec
:100af000800f52004f003a00858f50004d003a00a1
:100b00008301e800e18f5100e2ff36008c8f540032
:100b1000040036008a8f5400020031000b04780074
:100b200012003700614ab8006151b900b0ff2f00d0
:100b3000010020000200500083805800800f520006
:100b4000818f5a0002003500090478000700370041
:100b50000d805400b2d121000200400011000900b4
:100b60000a80d8000a80b9000004780008007800e4
:100b70006800070080017800e10f40002d0032007e
:100b800010c980000308780012c980006400410089
:100b9000a2409000808f5100020032000104a000aa
:100ba000010037000104a1002141980008804100a4
:100bb000640050008009780010c98800629221000a
:100bc0000208780011c98000214090000004a000b4
:100bd000a0409800234090000004a100a04198008c
:100be00002027800a7ff370022c98800828f5000d8
:100bf000090036009200780000922100a241900086
:100c000003487800f1c88800140978008040eb00a0
:100c100020c980002140980020c98000000a780087
:100c2000244090000004a00020429800640042008c
:100c3000010037000000eb004f06be004f05be006c
:100c40004f04be00000006006400500020c9880068
:100c5000a04090000104a10021409800000006007f
:100c6000889fbe008a9fbe0000057800e401500006
:100c700013001000c285de00234090000008a3008e
:100c80000400320023c98800234090000004a10022
:100c9000a04198000100780059ff07000004780087
:100ca0000000e000170032008a0f500015003200eb
:100cb00060b8970008005000c284de00898f55009c
:100cc00001003600890578004259dd008a0078006d
:100cd0000800780043ff07008a0f54000900310024
:100ce0004248dd00000044008a0f50000500360035
:100cf0000a00500000004400f2c8800003c98000d0
:100d00000288be00080078004f05be004f04be00f8
:100d100000000600889fbe008004780070c9800033
:100d20000000e00003003a00100007000000e000af
:100d30000a00350070c980000900e00002003a0096
:100d40000004780006003700000478000900400025
:100d5000060007000000e00001003d000084eb00f9
:100d6000080078004f04be000000060080007800f4
:100d70000000e00004003a000093210070c98800e0
:100d800001017800060037000081eb0080d12100ce
:100d9000808f500002003e0071c988000001eb0006
:080da0000200780000000600cb
:020000040000fa
:020000040002f8
:04aff400ffff00005b
:020000040000fa
:020000040002f8
:04aff8002ef800002f
:020000040000fa
:020000040002f8
:04affc00d93f000039
:020000040000fa
:10000800c8020000c8020000c8020000c8020000c0
:10001800c8020000c8020000c8020000c8020000b0
:10002800c8020000c8020000c8020000c8020000a0
:10003800c8020000c8020000c8020000c802000090
:10004800c8020000c8020000c8020000c802000080
:10005800c8020000c8020000c8020000c802000070
:10006800c8020000c8020000c8020000c802000060
:10007800ce910000c8020000c8020000c8020000bb
:10008800c8020000c8020000c8020000c802000040
:10009800c8020000c802000030860000c802000044
:1000a800c8020000c8020000c8020000c802000020
:1000b800c8020000c8020000c8020000c802000010
:1000c800c8020000c8020000c8020000c802000000
:1000d800c8020000c8020000c8020000c8020000f0
:1000e800c8020000c8020000c8020000c8020000e0
:1000f800c8020000c8020000c8020000c8020000d0
:10010800c8020000c8020000c8020000c8020000bf
:10011800c8020000c8020000c8020000c8020000af
:10012800c8020000c8020000c8020000c80200009f
:10013800c8020000c8020000c8020000c80200008f
:10014800c8020000c8020000c8020000c80200007f
:10015800c8020000c8020000c8020000c80200006f
:10016800c8020000c8020000c8020000c80200005f
:10017800c8020000c8020000c8020000c80200004f
:10018800c8020000c8020000c8020000c80200003f
:10019800c8020000c8020000c8020000c80200002f
:1001a800c8020000c8020000c8020000c80200001f
:1001b800c8020000c8020000c8020000c80200000f
:1001c800c8020000c8020000c8020000c8020000ff
:1001d800c8020000c8020000c8020000c8020000ef
:1001e800c8020000c8020000c8020000c8020000df
:0801f800c8020000c80200006b
:020000040000fa
:10020800c8020000c8020000c8020000c8020000be
:10021800c8020000c8020000c8020000c8020000ae
:10022800c8020000c8020000c8020000c80200009e
:10023800c8020000c8020000c8020000c80200008e
:10024800c8020000c8020000c8020000c80200007e
:10025800c8020000c8020000c8020000c80200006e
:10026800c8020000c8020000c8020000c80200005e
:10027800ce910000c8020000c8020000c8020000b9
:10028800c8020000c8020000c8020000c80200003e
:10029800c8020000c802000030860000c802000042
:1002a800c8020000c8020000c8020000c80200001e
:1002b800c8020000c8020000c8020000c80200000e
:1002c800c8020000c8020000c8020000c8020000fe
:1002d800c8020000c8020000c8020000c8020000ee
:1002e800c8020000c8020000c8020000c8020000de
:1002f800c8020000c8020000c8020000c8020000ce
:10030800c8020000c8020000c8020000c8020000bd
:10031800c8020000c8020000c8020000c8020000ad
:10032800c8020000c8020000c8020000c80200009d
:10033800c8020000c8020000c8020000c80200008d
:10034800c8020000c8020000c8020000c80200007d
:10035800c8020000c8020000c8020000c80200006d
:10036800c8020000c8020000c8020000c80200005d
:10037800c8020000c8020000c8020000c80200004d
:10038800c8020000c8020000c8020000c80200003d
:10039800c8020000c8020000c8020000c80200002d
:1003a800c8020000c8020000c8020000c80200001d
:1003b800c8020000c8020000c8020000c80200000d
:1003c800c8020000c8020000c8020000c8020000fd
:1003d800c8020000c8020000c8020000c8020000ed
:1003e800c8020000c8020000c8020000c8020000dd
:0803f800c8020000c802000069
:020000040000fa
:100da800736500006e6400006f6e000065620000ed
:100db80079740000653a0000003a0000000d000058
:100dc8000a000000526f00007574000065200000e2
:100dd80052650000706c0000792000004f4b000045
:100de8000d0a000000200000526f0000757400001a
:100df8006520000052650000706c0000792000003a
:100e080046610000696c0000656400000d0a00007e
:100e1800004e0000756d0000626500007220000041
:100e28006f660000205a00006967000062650000d4
:100e3800652000006e650000747700006f72000086
:100e48006b200000686100007665000020620000e9
:100e5800656500006e200000666900006e64000091
:100e68003a20000000500000726500007061000028
:100e780072650000206a00006f6900006e200000a3
:100e8800746f0000206e000065740000776f00002a
:100e9800726b00003a20000030780000004e00001d
:100ea8006f740000206600006f7500006e6400001b
:100eb800206400006573000069720000652000006e
:100ec8006e650000747700006f7200006b200000f0
:100ed8003078000031410000414100000d0a000057
:100ee800004600006f7500006e640000206400007a
:100ef8006573000069720000652000006e650000df
:100f0800747700006f7200006b20000030780000da
:100f180031410000414100000d0a0000004e000070
:100f280065740000776f0000726b00002873000082
:100f380029200000666f0000756e0000642e000016
:100f48002054000072790000696e000067200000dc
:100f5800746f0000206a00006f6900006e200000b6
:100f6800002000007c200000004e00006f200000e0
:100f78006e650000747700006f7200006b730000ec
:100f8800206600006f7500006e6400002e200000cf
:100f980054720000796900006e670000206100004b
:100fa80067610000696e0000210d00000a00000062
:100fb80020450000727200006f7200002066000079
:100fc800696e0000646900006e670000206e000012
:100fd80065740000776f0000726b00002e2000001f
:100fe80054720000796900006e67000020610000fb
:100ff80067610000696e00002e2e00002e0d0000b3
:101008000a0000004a6f0000696e000020740000aa
:101018006f2000007468000069730000206e0000f3
:1010280065740000776f0000726b0000204f0000ad
:101038004b2100000d0a00000053000074610000fd
:101048007475000073200000002e0000204300008b
:101058006f7500006c640000206e00006f74000063
:10106800206a00006f6900006e20000061730000b4
:10107800206f000072700000686100006e2e000092
:101088002000000054720000796900006e670000bb
:10109800206a00006f6900006e2000006173000084
:1010a800206f000072700000686100006e20000070
:1010b80061670000616900006e2100000d0a0000f0
:1010c800004d000075730000742000006e6f000072
:1010d800772000007472000079200000617300001e
:1010e80020610000206e000065770000206e00007f
:1010f8006f640000652e00002e2e00000d0a00000f
:10110800002e0000204300006f7500006c64000092
:10111800206e00006f740000206a00006f690000f4
:101128006e200000736500006c65000063740000a9
:1011380065640000206e000065740000776f000091
:10114800726b00003a200000002e000020540000be
:1011580072790000696e0000672000006e6500006b
:10116800787400002064000069730000636f000059
:101178007665000072650000642000006e6500005e
:10118800747700006f7200006b3a000020000000c6
:101198002e200000436c0000656100006e690000ad
:1011a8006e6700002075000070200000616e00006e
:1011b8006420000072650000747200007969000004
:1011c8006e6700002064000069730000636f000010
:1011d8007665000072790000210d00000a00000009
:1011e800526f000075740000657200002053000003
:1011f8007461000072740000656400002120000022
:10120800456e0000616200006c6900006e670000b6
:10121800206a00006f6900006e7300002e2e000027
:101228002e0d00000a000000526f000075740000c7
:101238006572000020730000746100007274000081
:1012480020460000616900006c650000643a0000f7
:10125800002e000020570000652000006361000098
:101268006e6e00006f740000207200006f75000041
:101278007465000020660000726100006d65000062
:10128800730d00000a000000437500007272000030
:10129800656e0000742000004e6500007477000041
:1012a8006f7200006b20000041640000647200004f
:1012b8006573000073200000697300003a20000085
:1012c800004e000065740000776f0000726b00002c
:1012d8002041000064640000726500007373000020
:1012e8002068000061730000206a00007573000028
:1012f80074200000726500002d6100007373000007
:10130800696700006e6500006420000069730000d2
:10131800203000007830000030300000310d00002f
:101328000a0000004a6f0000696e0000207000008b
:10133800657200006d69000073730000696f00003a
:101348006e20000046610000696c000065640000c2
:101358003a200000002e0000205700006520000001
:10136800636100006e6e00006f7400002061000071
:101378006c6c00006f770000206a00006f69000045
:101388006e7300000d0a0000004e00006f6400003c
:101398006520000000200000576900007468000004
:1013a800204d00004143000020410000646400001b
:1013b800726500007373000020000000206a0000be
:1013c80075730000742000006a6f0000696e0000e9
:1013d800656400002e0d00000a000000576500003b
:1013e8002068000061760000652000006c65000040
:1013f800667400002074000068650000206e00001c
:1014080065740000776f0000726b00000d0a000021
:10141800004100006e6f00007468000065720000f3
:10142800206e00006f640000652000006861000005
:10143800732000006c6500006674000020740000d2
:1014480068650000206e000065740000776f00007a
:10145800726b00000d0a0000005a00006967000066
:1014680042650000652000005374000061630000bd
:101478006b200000686100007320000062650000b6
:10148800656e00002072000065730000657400003e
:101498000d0a0000002000004c6500006176000085
:1014a800696e000067200000746800006520000075
:1014b8005a6900006762000065650000206e000040
:1014c80065740000776f0000726b00000d0a000061
:1014d80000230000564c00003a000000235700008b
:1014e800433a000000230000534e00003a00000079
:1014f800234a00004e3a0000002d00002d2d000068
:1015080000230000524400003a000000234100007c
:10151800443a000000230000524300003a00000053
:101528000a0d000050610000636b00006574000044
:1015380020450000525200004f5200003a2000009f
:10154800002300004f4b00003a0000002354000025
:10155800523a000000230000534400003a00000003
:1015680023530000433a00000030000031320000ed
:10157800003100003032000000310000313200003c
:10158800003000003032000000310000323100002d
:10159800003100003230000000300000323100001d
:1015a80000300000323000000020000045720000ca
:1015b800726f000072200000736500006e64000006
:1015c800696e0000672000006d65000073730000fd
:1015d80061670000650d00000a0000005365000007
:1015e8006e640000696e0000672000006d650000f1
:1015f8007373000061670000652000004f4b000016
:10160800210d00000a00000050650000726600000d
:101618006f7200006d200000477200006f750000b7
:10162800702000004f7000006572000061740000b7
:10163800696f00006e0d00000a000000547200007f
:10164800796900006e670000207400006f200000b8
:101658006a6f0000696e0000206e0000657400006b
:10166800776f0000726b000020610000732000009b
:10167800616e0000206f0000727000006861000059
:101688006e2e00002e2e00000d0a000000540000ef
:1016980072790000696e000067200000746f000016
:1016a800206a00006f6900006e2000006e6500006f
:1016b800747700006f7200006b20000061730000f7
:1016c80020610000206e00006577000020640000a3
:1016d8006576000069630000652100000d0a0000be
:1016e800005300006c650000657000002072000067
:1016f800657100007565000073740000204f0000dc
:101708004b0d00000a0000004e6f0000726d0000d3
:10171800616c0000204d00006f640000652000002f
:101728007265000071750000657300007465000043
:10173800642000004f4b00000d0a00000053000019
:101748005441000054550000535f0000524500000a
:101758005155000045530000540d00000a000000d8
:10176800205500006e680000616e0000646c000087
:101778006564000020700000726900006d69000057
:1017880074690000766500000d0a00000049000039
:101798006e69000074200000486100007264000057
:1017a80077610000726500000d0a00000049000022
:1017b8006e690000742000005a690000676200002a
:1017c800656500000d0a0000005200002644000074
:1017d800205a00006967000042650000652d00007e
:1017e800526f00007574000065720000204500000b
:1017f8004d4200002062000079200000575300008d
:10180800414e00002d4c00006162000034310000a0
:10181800310d00000a00000054720000616e0000e3
:10182800736300006569000076650000722d000092
:101838004d52000046320000344a000034300000a7
:101848000d0a000000000000020100000f0f000058
:1018580000050000008000001006000000000000e5
:101868000000000000000000000a00000000000066
:101878000100000002000000030000000400000056
:101888000500000006000000200000002100000004
:10189800220000000a000000008000000180000013
:1018a8000280000003800000048000000580000022
:1018b80006800000208000002180000022800000b7
:1018c800f000000003010000ffff0000000400001a
:1018d80022000000090000000700000019000000b5
:1018e80020000000000000000000000000000000d0
:1018f80000000000000000000600000005000000d5
:10190800060000000a0000001a000000080000009d
:10191800210000000000000000000000000000009e
:1019280000000000000000000000000000000000af
:10193800000000000000000000000000000000009f
:10194800000000000000000000000000000000008f
:10195800000000000000000000000000000000007f
:10196800000000000000000000000000000000006f
:10197800000000000000000000000000000000005f
:10198800000000000000000010c10000004000003e
:10199800ce000000000000007f00000000000000f2
:1019a800000000007800000000000000b400000003
:1019b800000000002c010000000000001c020000d4
:1019c80000000000fc03000000000000bc0700004d
:1019d800000000003c0f0000000000003c1e00005a
:1019e800000000003c3c0000000000003c780000c3
:1019f800000000003cf00000000000003ce0000097
:101a0800010000003cc00000030000003c80000012
:101a1800070000003c0000000f000000303100000b
:101a28003233000034350000363700003839000002
:101a3800414200004344000045460000a000000069
:0c1a48000000000000a3000004000000eb
:020000040000fa
:101a54008000eb0020b88000f007b20001003200e3
:101a6400110020000100780000000600889fbe00dd
:101a74002eb5a9009638ef009838ef00c0c3800057
:101a8400a0c38800a98821000044eb00a0c3800003
:101a940022c1b300890078005b4307000844e800d2
:101aa400200120007438b400f94f5400f7ff3a00c5
:101ab4000040eb007cf8b7000004fd007df8b7009f
:101ac4000004fd0086f8b70087f8b7008818a9005d
:101ad400c0532a00d0c38800b0c3800002c1b30041
:101ae400a1872100484307004f04be000000060000
:101af400889fbe008a9fbe008c9fbe00810678002e
:101b04000206780061c3800051c38800eb8621007f
:101b1400000578008044eb000944780051c380003c
:101b240062c0b3000b0078000243070070c380005a
:101b34008a0f500002003a0019c0b30003003700b6
:101b44000844e800600020006a38b400ef4f5400f5
:101b540003003e000904e00003003a00efff3700f1
:101b64000904e0000600320090c38000800e780073
:101b740070d8bf00004e78000980fb0003003700d6
:101b840030c0b300004e78000000eb004f06be00ea
:101b94004f05be004f04be00000006006657ec006f
:101ba40066f7b70002003a0010c0b30066f7b7004a
:101bb40066d7bf000080fb0000000600b2d5bf005e
:101bc4008000eb00050032000040e900b2f5b700e8
:101bd400a0ad8000b080fb00a0ad880001007800bb
:101be40000000600889fbe008a9fbe00aa882100cc
:101bf4000004eb000080fb0000004000e40540000e
:101c04007240b9007818b400a0c3880022c1b300a0
:101c1400800078000a007800c642070091c4800062
:101c2400d0ad8000808f500009003a004070210040
:101c34006b0078008880fb00f680400080804000c4
:101c4400114090000004a100904098000300370068
:101c54000804e800f90f5400e9ff3a004f05be00fc
:101c64004f04be0000000600889fbe008a9fbe008d
:101c74008c1f7800804378000045eb00866e2100bd
:101c8400086f2100960278000500e0000800320089
:101c94000704e0000700320065489000814f5000bf
:101ca40004003a0045009000820f500001003a0001
:101cb4001ac0b3000683e800860f5400f1ff3a000f
:101cc40009c1b3000404e0000100350089c0b30079
:101cd4000a04e0001a00320060c3800050c3880088
:101ce4000904e00016003200ec86210003057800a8
:101cf4008045eb000b44780051c3800062c0b30000
:101d04000c0078008b42070070c380008a0f5000db
:101d14000300320080c38000e30f500001003a004a
:101d24001bc0b3000844e800600020006a38b40017
:101d340088cf5400f0ff3a000b80fb00010037000d
:101d44000000eb004f0678004f05be004f04be00b4
:101d540000000600889fbe008a9fbe0080057800b0
:101d6400c0c38000a0c38800aa8821000004eb003f
:101d7400a1c3800022c1b3000a0078006d420700ad
:101d84009938ab000500320090c480008b0f5000de
:101d940002003a000880fb00060037002001200002
:101da4007438b4000804e800f90f5400f0ff3a0056
:101db400080078004f05be004f04be000000060076
:101dc400800178002e15a80022c0b300020078001c
:101dd400b8f5b70080c28000b0ad880094c280001e
:101de400d4ad88000001fd00b9f5b7000001fd0085
:101df40050ae880013ae88004cd8bf0080487800ed
:101e0400ccf5b700b575ef00e18f41000800320052
:101e1400b515a80003007800ceff0700f94f500065
:101e2400030032009918ab0001003a00b555a80030
:101e340010c0b300b4f5b700000006000200fa00b9
:101e4400889fbe008a9fbe008c1f78000006780021
:101e540082057800e4cf5000130032000180fb00bb
:101e640000004000816e21006080780020509000c6
:101e740062c0b3000440bc0061c380008100410023
:101e840051c38800e886210062c0b30008007800ce
:101e9400284207007038ef0050c3800062c0b300ce
:101ea40088007800584207001153210091407800bf
:101eb4000181fb002953210020c0b30000f17c0004
:101ec4000140e80031f5b7000080fb001b419000a1
:101ed40002f07c0001c0e80031f5b7000080fb008f
:101ee4002b41900002f07c0063c040000080fb00a6
:101ef4000cf07c0064c040004865de000080fb00fc
:101f04000af07c0065c0400031f5b7000080fb009a
:101f14004b41900002f07c0066c0400031f5b700f0
:101f24000080fb005b41900002f07c0067c0400031
:101f340031f5b7000080fb00eb4590000bf07c000e
:101f4400e8c040008000fd0031f5b7008000fd00ce
:101f5400085321001844780010ff07008880fb0014
:101f640080f07c000840e9000080fb00a1c0b300c1
:101f740001f07c0008c0e9000080fb0031852100ed
:101f840011f07c00634054000080fb002185210097
:101f940011f07c00644054000080fb000af07c00d7
:101fa400654054000080fb000cf07c006640540047
:101fb4000080fb008040eb0001f07c00674054008f
:101fc4000080fb0091c0b30001f07c006844540021
:101fd4000800780030f5b700d0ad8000ec805700e1
:101fe40077ff07004f0678004f05be004f04be0080
:101ff4000080fa00000006000400fa00889fbe007a
:102004008a9fbe008c9fbe00000578000106780000
:102014008206780061c3800051c38800eb862100ea
:1020240062c0b3000b007800c24107008a04780044
:102034000044eb00090037000844e80051c3800065
:10204400e680400051c3880062c0b3000b007800f2
:10205400b8410700f04f54000600320070c38000fe
:10206400890f5000f4ff3a00150037000084fb008c
:102074002000370061c3800051c3880062c0b300f0
:102084000b007800ab4107000044eb000900370067
:102094000844e80051c38000e680400051c3880032
:1020a40062c0b3000b007800a2410700f04f540057
:1020b4000300320080c38000e30f5000f4ff3a00b5
:1020c400884e78008000eb00826e21000500370006
:1020d4000040e8008100e8000281e800e48f50003d
:1020e400e2ff320001407800010478001200e000b1
:1020f400f7ff3a00004e780040c1b3008e44070059
:102104000001780088004400806e2100823078004d
:102114000200e00002003a00020078001b003700d1
:102124007ac388001a0020008ac3880050c3800044
:1021340062c0b3008b007800b34107000804440078
:10214400806e2100000444009800780000c0eb0079
:102154008050980098047800708057006744070006
:102164000fb897009fb89700808cbe0018007800c5
:102174009d4678002d509800980078000000eb00f0
:10218400e00098000437a8000a0078004f06be005b
:102194004f05be004f04be000080fa000000060098
:1021a4000400fa00889fbe008a9fbe008c1f78003e
:1021b400000678000000eb00817021000500370064
:1021c4000844e8000000e8008180e800e70f5000c0
:1021d4000500320000447800800478001100e0001b
:1021e400f7ff3a0003003700e74f54002c00320099
:1021f4008884fb0000c3b3004f4407008980440077
:10220400648540004b70210000b57d000000e000b3
:1022140023003200084e7800ea807d0000c0eb0005
:10222400c04898006a847d006e80570033440700dc
:102234001fb89700afb8970070049800010c98007d
:10224400100c9800210c9800ea807d003108900061
:102254000050a100b00898006a817d003208900007
:1022640001ff2f00010060000010a0003009980059
:102274000001eb008a0078000b02780033c0b30041
:1022840061007a0002004000735098000201e800e7
:10229400f90f5100faff3a00100020000100370046
:1022a4000000eb004f0678004f05be004f04be004f
:1022b4000080fa00000006001d59e20019003a00ef
:1022c4003818ab00140032006088210031c1b3001b
:1022d40090cf100010003e00b235ab0002003a006f
:1022e4000577ab000a003200e087210041c0b3004b
:1022f40090cf100008003e007088210051c0b30048
:1023040090cf100004003e000597ab0002003a0095
:1023140010c0b300010037000040eb000080fb0058
:10232400000006006088210031c1b30090cf100086
:1023340010003e00b235ab0002003a000577ab0056
:102344000a003200e087210041c0b30090cf1000a2
:1023540008003e007088210051c0b30090cf1000e7
:1023640004003e000597ab0002003a0010c0b30021
:10237400010037000040eb000080fb000000060075
:10238400889fbe008a1f7800c0c38000a0c3880055
:10239400aa8821000004eb00a1c3800022c1b3007d
:1023a4000a007800e34007009938ab0002003a00c5
:1023b4000880fb0006003700200120007438b400b8
:1023c4000804e800f90f5400f3ff3a00080078000d
:1023d4004f0578004f04be0000000600d10820001d
:1023e400e24f50001000320006003e00d1432100ad
:1023f4000004e0000c003200e14f500007003a00f6
:102404000800370051012000e34f5000060032005d
:1024140011002000e44f5000030032008000eb0064
:1024240001003700d13520000100780000000600cb
:10243400889fbe000004be000204e00007003200d2
:10244400810f5000070031000240e900e3ff07005c
:1024540000004400808f540002003100100020006e
:10246400010037000000eb004f04be00000006002e
:10247400889fbe008a9fbe008c1f7800800478006d
:1024840001067800c0c38000a0c38800aa88210088
:10249400890578000044eb00a1c3800022c1b30089
:1024a4000a007800a3400700c0c48000002cb200da
:1024b40001242000810f50000e003a0093c48000d4
:1024c400838f5500070032007e58ec0000417800ed
:1024d4008900780003007800d5ff07000004e000bd
:1024e4000400320090c48000000e78001000200028
:1024f40012003700200120007438b4000844e800ba
:10250400f94f540005003200e3ff370050c2800049
:10251400000e78001000200008003700e287210038
:102524001241780090c2800089007800c0ff070043
:102534000004e000f5ff32000000eb004f067800d5
:102544004f05be004f04be00000006000004e0007a
:10255400220032003978ef0010c2b3003af8b70015
:10256400e1872100914078004309dd0002007800f2
:102574003bf8b7006088210033c1b30090cf11004d
:1025840016003e00c087210083c1b30090cf110024
:1025940012003e0023b8800003b8a30006003a00ee
:1025a400e4cf50000d003e00024078000074a0000b
:1025b4003bf8b70002003700e4cf500007003e00ac
:1025c4007088210051c0b30090cf100003003e007a
:1025d40003c8a30001003a003b58a800000006000d
:1025e400c2c4800082007800010cb2000004200004
:1025f400808f500009003a008678ed0002007800d0
:102604000003b200f00f500001003a008778ed009b
:1026140010c0b300cdff0700040037000100e00044
:1026240002003a0090c1b3007df8b7009938a900c0
:102634009638ef009838ef00a0c3800022c1b300a1
:10264400a1882100704007007c78ed00b0c38000b1
:1026540002c1b300a18721006b403700a08821008c
:10266400a15b2100070009003158780080c2800076
:10267400a0c488009af8ef00b235ab000a003a0013
:102684009898a90098b8a80010c4800090c4880045
:102694000000e80010c48800e20f400010003a0077
:1026a4000577a8000e0037009898a80098b8a900ec
:1026b40020c4800090c488008778ec0002c48000a5
:1026c4000200400020c488006611b90091c2800055
:1026d40001014100820f5000010036000597a80057
:1026e40091ad8000c508dd000110b200c0c48000b7
:1026f4000080a10001007000c0c4880098d8a80020
:1027040098f8a9009938a800a0c3800022c1b3009a
:10271400a18821003c4007008678ec007c78ec001e
:10272400b0c3800002c1b300a18721003640070076
:1027340010c0b30085ff3700889fbe008a9fbe008b
:102744008c1f78008005780001067800c0c38000e3
:10275400a0c38800aa8821000004eb00a1c3800064
:1027640022c1b3000a007800f23f07009938ab0099
:102774000800320090c480008b0f500005003a001e
:10278400a0c480008c0f500002003a000880fb00b7
:1027940006003700200120007438b4000804e80063
:1027a400f90f5400edff3a00080078004f06780056
:1027b4004f05be004f04be00000006000a00fa00e8
:1027c400889fbe008a9fbe008c1f7800004478005a
:1027d400014678008000eb00c2712100050037003b
:1027e4000040e8008100e8000281e800e68f500024
:1027f4000500320001407800010578001200e00075
:10280400f7ff3a0003003700e64f50002f01320073
:102814000085fb00c0c0b300c742070080007800f9
:102824000a004500f80440004b70210081b47d008b
:102834000100e000250132000804e0004e003200ef
:1028440090c28000a000980069807d0011ae8000d5
:102854003100980069817d0030d5bf003155b50045
:1028640071c8b300014040002041980069807d0098
:1028740020409000b0420700000478000000e0000f
:1028840005003a0069807d00ad42070088b47d00f0
:10289400400020000e0137000a0045007800400087
:1028a4004170210060807800080878004660dd00ef
:1028b4000034a000004c7800b3d5bf0000404000b5
:1028c40010449800c2d5bf0020449800315c210018
:1028d400914078003144980052d8bf004044980099
:1028e400318521009140780051449800ac5b21006f
:1028f4001c4678006c449800ccd5bf007044980006
:10290400680144000153210091407800e0c7b300fe
:1029140080cf50000a003e002453210080417800fb
:102924000140e80030f5b7000080fb0060597a00f0
:10293400015321009140780083cf5000f8ff360006
:102944003155ed0031f5b700e14f4000470032004a
:10295400820078002353210002c050000080fb0055
:10296400e0d879003155ed0031f5b700e14f400072
:102974003e003200f8ff3700c0ff2f00b435b4002a
:102984000a004500780440004970210068807c00fa
:10299400d1ad800021009800e8807c00b415ed00e2
:1029a400a0ad880010407800f0409800e8807c00da
:1029b400b415ed00a0ad880010407800e040980008
:1029c400b4b5ed00b2d5bf0068404000b2f5b70021
:1029d400e8807c00a040980068807c002040900043
:1029e40055420700800578000000e0005d003200d9
:1029f4000a004500780040004170210060807800a2
:102a04000b0878006dfc0700f043b200c660dd00df
:102a140080cd700069fc07009045980067fc0700b2
:102a2400a045980065fc0700b045980063fc0700ca
:102a3400c045980061fc0700d04598005ffc070082
:102a44000046e900ec4598005cfc0700f04598005e
:102a540068844500b255e2000400320057fc0700c8
:102a6400005c7800b255e200fcff3a000a00450021
:102a7400f80440004b70210069847d007280570087
:102a84001e4207007fb097008fb89700400498005b
:102a94005104980069807d003000900074815700d3
:102aa400f380570054fd07000004e00009003a00d9
:102ab40069807d00100078002142070069807d0054
:102ac4001f4207000000eb0080b47d00400020009e
:102ad4007f0037002e15a900f0c7b30030f5b7000a
:102ae4003175ef005fe897000080fb0000004000b4
:102af400896e210060847c00e0c0b3000e420700b0
:102b040080057800600498000000e0001a003a0094
:102b14001000200080c3880050c3800062c0b3004e
:102b2400e1862100383f07005fe897000080fb0042
:102b34000000400060807c00014207005fe89700cd
:102b44000080fb00000040000bb07c000a0445003c
:102b5400780444004970210068807c0010007800eb
:102b6400f741070068807c00f54107000bb47c0046
:102b740040002000560037005fe897000080fb000b
:102b840000004000886e210060007c00b1712100cb
:102b940091407800614898005fe897000080fb004e
:102ba4000000400060007c0091c280004100980059
:102bb4005fe897000080fb000000400060007c009c
:102bc4008044eb00794898005fe897000080fb00a0
:102bd4000000400060017c0012089000f18f2f007b
:102be4000100600000a0a000100998005fe89700b1
:102bf4000080fb0000004000e0007c001108900011
:102c040000b0a1009008980010c0b300804d780077
:102c140000c8b300904598001bd7bf00a04598009a
:102c24000040e8001bf7b7000a00450078004000a8
:102c340042702100e0007900e1409000b145980025
:102c44006000790070409000c0459800d945980014
:102c5400d2fb0700e0459800fc45980053d8bf001c
:102c6400804d98002185210091407800914d980075
:102c740000c0eb00a04d9800c0cfb300b04d980049
:102c8400c94d980090c0b300d04d98006e80570095
:102c94009a4107005fe897000080fb0000004000b5
:102ca40060027c001fb89700afb89700d21f2c00b9
:102cb400f3ff2f00000041008180490020029800aa
:102cc400310298001000200001003700400020006d
:102cd4004f0678004f05be004f04be000080fa0086
:102ce400000006000200fa00889fbe008a9fbe0012
:102cf4008045780001047800024578008304780058
:102d04000100780013fc0700f94f50000a0032005c
:102d1400c1c48000010cb20000042000808f500068
:102d2400020032000100e00003003a00880c780041
:102d34000000eb002600370092c2800004c8b300f4
:102d4400880178008040eb0001407800c6fb070052
:102d54000004e00015003200e24f550004003a0080
:102d640011c0b3000b40780094fe07001800370030
:102d74006a8157000800be005dfb07000004e00004
:102d8400040032006ff097000004e00007003a00ee
:102d94000e003700e14f550004003a008a407800e5
:102da4000b40780085fe0700090037000800be00cc
:102db400affd07000004e00004003a0010cdb300aa
:102dc400b2f5b70020002000010037000000eb003e
:102dd4004f05be004f04be000080fa00000006004c
:102de400889fbe003000200080c388006eb8ef00ca
:102df40060c3800050c38800e98621000044eb00d2
:102e040050c3800062c0b300890078007e3e070092
:102e14000844e800600020006a38b400f04f540011
:102e2400f7ff3a004f04be0000000600889fbe0072
:102e34008a9fbe008c1f780080457800300880008f
:102e440066f7b7002e75ef0021b880000437ef0055
:102e54000637ef00000022008080600020b8800068
:102e640000d0a1000100700020b888008076210005
:102e74000041eb00417b2100024878000080e8001b
:102e8400808f5000fcff3a000b04e00004003a007d
:102e940010ba80000000e000010032002841070061
:102ea4000000eb0010ba8800800478008a702100ca
:102eb4004c7021000b04e000020032000904780089
:102ec40008003700090478001a0078000000e000c8
:102ed4000400320010007800194107001a0078003d
:102ee4001741070008004400640040008000eb0024
:102ef40001307e008904e8000a85e800e78f540069
:102f0400ecff3a0081047800ca7121004c70210062
:102f14000b04e000020032000904780008003700c6
:102f2400090478001a0078000000e0000400320070
:102f340010007800024107001a00780000410700e1
:102f440008004400780040008000eb0001307e005f
:102f54008904e8000a85e800e68f5400ecff3a0093
:102f6400810478008a6e21000a0678000b04e000d0
:102f740002003200090478000500370009047800d3
:102f84001a0078000000e00001003200ec40070065
:102f9400080044000c0040000008eb008904e8002d
:102fa4000a85e800e48f5400f0ff3a008cff070024
:102fb4004f0678004f05be004f04be000000060017
:102fc40010c0b30099ff0700b1c3800002c1b30071
:102fd400a0872100d73d0700d1c38000c0532a0039
:102fe400808f500002003200a0fa0700050037006d
:102ff400d087210091c1b30090cf100001003200ae
:103004002eb5a800206f21000041eb006170210063
:103014000248780064004000810f5000fcff3a0031
:10302400a07221000081eb002174210002087800c5
:1030340064004000808f5000fcff3a00000006004e
:103044000800fa00881f7800ea80570022d228007e
:1030540007000900b25878008100b1000004eb00b9
:103064008200200044f607000000e00001003a005e
:1030740018002000080078004f0478000080fa004f
:1030840000000600889fbe008a9fbe00800578006d
:10309400c0c38000a0c38800aa8821000004eb00fc
:1030a400a1c3800022c1b3000a007800a13d07003b
:1030b4009938ab000800320082002000a18821006a
:1030c4000b0078002cf607000000e00002003a0034
:1030d4000880fb0006003700200120007438b4008b
:1030e4000804e800f90f5400edff3a0008007800e6
:1030f4004f05be004f04be00000006002f05b000bf
:10310400889fbe008a9fbe008c9fbe008e1f7800e1
:103114008045eb0000047800a1fb2f0001804700ec
:10312400764007005f999700ef999700e2b79f00f8
:10313400f3b79f000457ab000f003200b4b880000f
:10314400c5b880000402510085825900a271210093
:10315400124178000281fb000300200040422f004e
:103164000010b800800f5200818f5a000200360010
:103174003818a9000457a9000800e00067043a00c1
:103184002ed5bf000008a30049113a000417ab0074
:10319400620132006fb29700ffb29700d4af9f0074
:1031a400e5af9f00880678008c7021000d07780039
:1031b4000c0578001c0478000800e0004801320087
:1031c40018089000a80890005faa9700efaa97003b
:1031d4000001520081815a00030033000200be0046
:1031e4004cf5070009003700610061000100200070
:1031f4008301d1000281d30002007000838070003b
:1032040044f507000001be00e3f4070002a02b0010
:10321400b37524003df507000000e000060034000b
:1032240018007800464007001a0078004440070060
:10323400000deb002a013700380990000202b200a9
:1032440027013a000b10a100c84c9000f9cf54009c
:103254005a0032008042eb0085e79f00e1cf440032
:103264001b003a0078009000880890005faa97003d
:10327400efaa97000000520081805a00f5e1240073
:10328400850f5000e08f580002003e0082e79f0047
:10329400470037000080eb00b0979f000b10a000a0
:1032a4001a047800e6fb2f0006804700134007004d
:1032b4007f9897008fa09700100c9800210c98001d
:1032c4008044eb0011c0b30081e79f003800370051
:1032d4000984fb000940780022c1b3000440bc000b
:1032e400c1c3800081004100a1c3880022c1b30092
:1032f400a08821000f3d0700c2c48000820078002e
:103304000120b20004003a00760044001a00400094
:10331400114098001c0037009a007800410090008a
:10332400e40f400008003200e30f400002003a00be
:103334000288a3000400320093c48000310090008e
:10334400808f510005003a000980fb000080400096
:103354008040eb00715098000b0037000288a300f6
:1033640009003a00b3979f008980fb00f680400073
:103374009a804000114090000004a1009040980001
:1033840011c0b30081e79f008944e8000fe1970072
:10339400614061004200dd000b24a10080c575007e
:1033a4000b28a30002003a00f8cf5400c8ff3600ef
:1033b4001a00780049489800420037000b00a0002a
:1033c400b275ef001a0178008000eb0004003700aa
:1033d400014078008100e800f98f500005003200b8
:1033e40001004100705090000008a300f8ff320073
:1033f40002003700f84f50002900320000cfb3001c
:10340400b2f5b7009a017800330890006f006000ad
:103414002300320013089000a30890005faa9700cd
:10342400efaa97000000520081805a0035422f0015
:10343400850f5000e08f5800150036000b00a100e6
:103444000080eb00b0979f0033089000ef404000ed
:10345400ef80600002ff2f00020060000100700096
:10346400b00998001a04780020fc2f00008047005f
:10347400a23f07001fa09700afa09700100c980070
:10348400210c980011c0b30081e79f0006003700ab
:103494000b00a1000041eb0082e79f00020037000f
:1034a4008041eb0083e79f000fe2970061406200d8
:1034b4004200dd000b24a10080c575000b08a300a9
:1034c4001e003a008fe2970061c062004200dd00f6
:1034d4000b24a10080c575000b28a30080003200d6
:1034e4000b18a300250032000e00470064004000c2
:1034f4004670210060007b00b000900090c2800004
:10350400808f50001d003a000044eb0080762100bb
:1035140061c2b300040037000844e8000080e800fa
:10352400814f5400030032001004e000faff3a0017
:103534001300370010cfb300b2f5b7000e014700f7
:103544006401410040702100e200780031409000a5
:10355400ccf5b700310890000050a000b0089800e6
:1035640041702100628078003008900043032000fd
:103574000048a30040113a004d10370068c2b30060
:1035840001532100914078008181fb000e00470027
:10359400640040004470210060017a0032439000ce
:1035a4002553210086f17a000140e90030f5b70087
:1035b4000080fb00c241900003f07a0001c0e900e2
:1035c40030f5b7000080fb007242900004f07a00ee
:1035d40063c0500030f5b7000080fb0062439000e8
:1035e40006f07a0064c0500030f5b7000080fb009c
:1035f4009249900003f07a0065c0500030f5b7009e
:103604000080fb00024a900004f07a0066c050007b
:1036140030f5b7000080fb00224b900006f07a00e2
:1036240067c0500030f5b7000080fb00b24990003d
:1036340003f07a00e8c050000100780030f5b700cc
:103644000042eb00a4679f009201780022409000a2
:103654000004e0000d0032000502780031d5bf00ff
:103664008080fb00b342780085707a000040e80057
:1036740031f5b7002f6397008640e800a1679f00eb
:1036840022409000814f5000f4ff3e003f9097008d
:1036940021fa2f008f804000c9f9070060c2b300ef
:1036a400804f5400041032008880fb008180400069
:1036b400707621002f619700827078000e00470019
:1036c400640040004370210060817900807621000d
:1036d400324190008270780003012000e610370028
:1036e4008d06e8000c86e800e78f5600affe3a002e
:1036f4008040eb0080702100040037008140e80026
:103704000080e800e7cf5000030032001000e00022
:10371400faff3200010037000417a9000437ab0098
:10372400d60132006fb59700ffb597000001eb009a
:10373400836e210082027800930078000100e0008b
:1037440058003200610290000400e000550032008d
:103754001108900000b8a30009003a00210090006d
:10376400b10090000000550081805d0026e0230038
:10377400860f5000e08f58004a00360008003700da
:1037840021009000b10090000000550081805d0090
:10379400f6c32900860f5000e08f58004100360020
:1037a4000040eb00a0679f002253210031d5bf00e9
:1037b4008080fb00b4417800837079000040e80009
:1037c40031f5b7002f6397000640e800a0679f001b
:1037d400e54f5000f5ff36000040eb00a0679f0066
:1037e4002253210030d5bf008080fb00b441780013
:1037f400837079000040e90030f5b7002f6397002b
:103804000640e800a0679f00e74f5000f5ff360030
:1038140085804200806e210000844000980078007a
:103824001108900000b0a100900898009801780059
:10383400130990004810de006740400067006000f4
:103844004800dd00f18f2f000101610000017100cb
:1038540092099800180078006fb19700ffb19700a3
:103864002200980033009800180178009208900014
:10387400007020008084600004003a006200900020
:10388400af3e0700180078006900980021fa2f0065
:103894008f8040000080eb0049f9070003012000fd
:1038a400751037000201e8008381e800e40f51003d
:1038b400a0ff3a00886e210088047800180278007e
:1038c4000400e0002200320034015500a4815d00b0
:1038d4008096280091002000800f5100818f5900ac
:1038e4001b0036002450900062c0b3000440bc00aa
:1038f40061c380008100410051c38800ec8621002f
:1039040062c0b3000c0078008a3b070080c38000cb
:10391400e10f500006003a002000200080c3880018
:1039240050c3800062c0b3008c007800b63b07002f
:1039340019007800600090000000e00001003200ef
:103944007f3e0700190078007d3e0700800ceb00e5
:103954000884e800006f2100880f5000d6ff3a0069
:103964000040eb00a0679f00497021008005eb0038
:103974002a5321000080fb00000040007800400032
:1039840060807c000000e0000a01320030009000fa
:1039940023fa2f008f8141000381e800e480410075
:1039a40053f807000004e000870032004f619700dd
:1039b4000204e00079003a002f6297000480fb00c3
:1039c4000000400078004000e0817c00a3009000eb
:1039d4000044eb0090c28000808f500029003a0020
:1039e400024478008076210061c2b30004003700ed
:1039f4000844e8000080e800814f540003003200ce
:103a04001004e000faff3a001e00370013007800ab
:103a140070409000ccf5b70010cfb300b2f5b700fa
:103a2400af6297000580fb00000040007800400072
:103a340060807c0010007800413e07002f639700ef
:103a44000680fb00000040007800400060807c009d
:103a54003b3e0700af6097000180fb000000400080
:103a6400780040000bb07c002e15a900f0c7b3000d
:103a740030f5b7000b00780031f5b70043032000a0
:103a8400fd0f370093017800bb679f002f619700fb
:103a94000280fb00000040007800400060807c0051
:103aa400204090000004e000120032002453210062
:103ab4000280fb00000040007800400041702100bb
:103ac4006081780031d5bf008080fb00b34278006c
:103ad40085707a000040e80031f5b7003f60970038
:103ae4000040e800b0679f00a240900080cf5000e3
:103af400f4ff3e003f90970036fa2f00868047007f
:103b0400aff80700af6097000180fb0000004000a1
:103b14007800400060817c00a200900090c2800088
:103b2400808f500009003a000880fb00000040002c
:103b340071762100bf61970003f0780012017800cc
:103b4400817621007241900002f078002f62970084
:103b54000480fb00000040007800400060807c008e
:103b640010007800f63d0700af6297000580fb0067
:103b7400000040007800400060807c00f03d0700b9
:103b84002f6397000680fb0000004000780040008f
:103b94000bb07c0003012000b70f3700e24f510047
:103ba40084003a00af6097000180fb0000004000f1
:103bb4007800400060807c00a000900090c28000eb
:103bc400808f50001e003a002f6197000280fb0096
:103bd4000000400078004000e0807c001100780084
:103be40070409000ccf5b7000b007800b2f5b70038
:103bf40011007800d23d0700af6197000380fb00fd
:103c0400000040007800400060807c00cc3d07004c
:103c14002f6297000480fb00000040007800400001
:103c24000bb07c002e15a900f0c7b30030f5b70027
:103c34000b00780031f5b700430320008e0f3700e6
:103c44000853210018447800d4f707008880fb004b
:103c540080707d000840e9000080fb00a1c0b30033
:103c640001707d0008c0e9000080fb00318521005f
:103c740011707d00634054000080fb002185210009
:103c840011707d00644154000200780030f5b700e3
:103c94000281fb0021fa2f008f8040003180fb005d
:103ca400000040007800400060827c00d442900014
:103cb40005717d006540540030f5b7000080fb00bd
:103cc4004443900006707d00664054000080fb0071
:103cd4000b707d00674054000080fb0092c0b3006d
:103ce40002707d00684454000800780030f5b70085
:103cf40012532100124178008281fb0030c0b300ce
:103d040080717d000240e8000080fb000b707d00a4
:103d140002c0e80031f5b7000080fb00e4419000e8
:103d240003707d006340410031f5b7000080fb0063
:103d3400f442900005707d00644141000200780067
:103d440031f5b700240090001df807002f63970099
:103d54000680fb00000040007800400060807c008a
:103d640010007800763d0700af6097000180fb00eb
:103d7400000040007800400060807c000b08780060
:103d84002f6197000280fb00000040007800400093
:103d940060807c006a3d0700af6197000380fb00f0
:103da40000004000780040000bb07c0003012000bc
:103db400310f37002f6297000440e800a0679f008e
:103dc400e54f5000ebfe36008042eb00a5679f00f4
:103dd40066c3800056c38800e986210051c3800071
:103de40062c0b30009007800523a070088c380001b
:103df400e20f5400160f32002f6097000040e800d5
:103e0400a0679f00600020006a38b400af6097008c
:103e1400efcf5000f1ff36000040eb00a0679f0099
:103e24001c17e20015003a00e17121000040e8008f
:103e3400a0679f00e64f5000030032003100e0000d
:103e44000e003a00f9ff37000040eb00a0679f0026
:103e5400e816e20009003a00a16e21000040e800e3
:103e6400a0679f00e44f5000030032003100e000df
:103e740002003a00f9ff37000437a90022b8800095
:103e84000200e0000f003d00d0ba8000e1ba8000db
:103e94006fb29700ffb297000000520081805a0071
:103ea40005802700850f5000e08f5800050036007c
:103eb400a0ccb300b2f5b700b8b5ef00a30320005f
:103ec400ed0e37000278a3001100320004f7a900b8
:103ed400b4d7bf00b2f5b700b5d7bf00b3f5b7008c
:103ee400e1bd8000d1ad880022be800033be8000d9
:103ef40012ae880023ae880044be800055be800008
:103f040034ae880045ae8800c3042000da0e3700c2
:103f14000238a300e60d32000268a3000500320057
:103f240004d7a90010c0b300b2f5b70043022000c3
:103f3400d10e3700820078000102b200dc0d3a0095
:103f4400b074210095c1b30090cf12007b00320001
:103f5400a1679f00a88821004bd7bf0022c1b300ee
:103f64000440bc00c1c3800081004100a1c388009b
:103f740022c1b30008007800ee390700c0c48000f5
:103f8400002cb20001242000810f500002003200f6
:103f94004b77ec000200370010c0b300a0679f000d
:103fa4004bd7bf00f84f500004003e002f6397002a
:103fb4000604e00004003a00e7ff3700af60970012
:103fc4000104e000630032000040e8004bf7b70052
:103fd4000040eb00a0679f000042780029532100b5
:103fe400a588210002532100124178008041780005
:103ff400024478008280fb000480fb00670010000c
:1040040060c07a0080f07c000241e900024578003b
:104014008341e80003427800e7cf5100f4ff360003
:10402400a3679f000001fd0030f5b7000001fd000b
:10403400daf607008a80fb0080f07c000a40e90081
:104044000080fb0011c0b30001f07c006340540009
:104054000080fb003185210011f07c006440540095
:104064000080fb002185210011f07c006540540094
:104074000080fb003189210011f07c00664054006f
:104084000080fb002189210011f07c00674054006e
:104094000080fb008040eb0001f07c00e84054000d
:1040a4008180fb000101e80062c07c000034a000b4
:1040b40000f17c0090c0b30080f07c0069405400a3
:1040c40030f5b70031d5bf000081fb0041c0b3001b
:1040d40001f17c000040e80031f5b70000c4b300f2
:1040e400a0679f000537ab000200320000ccb3008c
:1040f400a0679f0005b7ab0003003a002f6197004b
:104104000254a000a2679f0031d5bf000081fb00cc
:1041140021532100af61970003f178000040e800cb
:1041240031f5b70090c4800021fa2f008f80400041
:1041340023f70700030120004f0e37000537a900bd
:104144008678ef00b0c3800002c1b300a1872100cc
:10415400ad3907000537ab00110032008658e20084
:104164000f00320066ba800077ba80006fb2970001
:10417400ffb297000603520087835a0002c48000ee
:1041840003002000f42f25000410b8006711b900c3
:1041940082804000800f5300818f5b00440d360005
:1041a40004d7a800c57c210026d2280007000900f6
:1041b400b65a78000040eb00a0679f0000427800e8
:1041c40029532100c57c21000253210012417800ab
:1041d40080417800024478008280fb000480fb0068
:1041e4006700100060c07a0080f07c000241e900a2
:1041f400024578008341e80003427800e7cf51008c
:10420400f4ff3600a3679f000001fd0030f5b700fe
:104214000001fd0061f607008a80fb0080f07c004d
:104224000a40e9000080fb0011c0b30001f07c00eb
:10423400634054000080fb003185210011f07c00b4
:10424400644054000080fb002185210011f07c00b3
:10425400654054000080fb0080c0eb0001f07c004e
:10426400664054000080fb00c1cfb30001f07c0025
:10427400674054000080fb008041eb0003f07c00a9
:10428400e84054008180fb000101e80062c07c002a
:104294000044a00000f17c0090c0b30080f07c00da
:1042a4006940540030f5b70031d5bf000081fb00f0
:1042b40041c0b30001f17c000040e80031f5b700d3
:1042c400a3679f0020b880000098a3000600320076
:1042d4008658e20004003a0000a8a300020032005d
:1042e40000c8b300a0679f0031d5bf000081fb0068
:1042f40021532100af61970003f178000040e800ea
:1043040031f5b70021fa2f008f8040000080eb00c8
:10431400abf6070003012000d70d3700f0fe2f0095
:10432400f1ff2f0008004000e08048001406200040
:10433400840f5000e08f5800dd0c3e000060010047
:10434400610037009e003700d90c3700d80c3700c5
:10435400d70c37002b073700d50c3700540737002c
:10436400d30c3700d20c3700ab073700d107370026
:10437400cf0c3700ce0c3700cd0c3700cc0c3700f7
:10438400cb0c37002a083700c90c3700c80c37009b
:1043940032083700c60c3700c50c3700c40c370090
:1043a4005408370047093700c10c3700c00c3700e8
:1043b400bf0c370051093700bd0c3700bc0c370067
:1043c400bb0c37005209370059093700b80c3700c5
:1043d400b70c3700b60c3700b50c3700b40c3700f7
:1043e400b30c3700b20c3700b10c3700b00c3700f7
:1043f400af0c3700ae0c3700ad0c3700ac0c3700f7
:10440400570a3700980a37009b0a3700b10a370069
:10441400cd0a3700350b3700470b3700e60b370062
:10442400e90b3700a20c3700a10c3700a00c3700b1
:104434009f0c37009e0c37009d0c37009c0c3700f6
:104444009b0c37009a0c3700990c3700980c3700f6
:10445400970c3700960c3700950c3700940c3700f6
:10446400930c3700920c3700910c3700900c3700f6
:104474008f0c37008e0c37008d0c37008c0c3700f6
:104484008b0c37008a0c3700890c3700880c3700f6
:10449400870c3700860c3700850c3700840c3700f6
:1044a400830c3700820c3700810c3700800c3700f6
:1044b4007f0c37007e0c37007d0c37007c0c3700f6
:1044c4007b0c3700c60b37000040eb00a0679f0051
:1044d400487021008081eb000081fb00c210dd00e8
:1044e400600220000100400060007c00e10f4000f9
:1044f400090032000100440050609000cc55e300f4
:1045040005003a00b255e200910c3a00010078002f
:104514006002b00003307c00af6297000540e80001
:10452400a0679f00e54f5000ebff36000043eb000f
:10453400a6679f0067d7bf00cc55e300820c32000a
:10454400120020009376210064022000a2679f00dd
:10455400840f510007003200820078001340780075
:104564000101e8008381e800cc55e3000500320036
:10457400f6ff370060c2b300804f51004c0c32008c
:104584008280fb00818040008076210061407800b9
:104594008001eb000004e00002003200ccf5b7001b
:1045a40043032000af6097000180fb00000040003f
:1045b4000041eb008176210002f078002e0d3700d7
:1045c4007ef50700a0ef9f0080f79f007bf50700b2
:1045d40080ef9f0090f79f0078f507000080fb00b4
:1045e40009f02f00090666000006760073f507003f
:1045f400e0e79f004800dd00f80f20000806660091
:10460400000676006df507000080fb0089856500d3
:104614008085750069f50700c0e79f004800dd004c
:10462400888565008085750064f50700a0e79f0014
:1046340062f5070090e79f000fed97000a427800ab
:104644000438a3000c0032000040eb00a0679f0078
:1046540000447800096e210058f507008880fb00ab
:1046640080f07c00af6297000544e800a8679f00d3
:10467400e74f5400f8ff36000a48a3000c0032004c
:104684000040eb00a0679f0000447800896d210082
:104694004af507008880fb0080f07c002f639700b8
:1046a4000644e800a8679f00e74f5400f8ff36006f
:1046b40010ae8000e10f400002003200e50f46001a
:1046c400340336000040eb00a0679f000b05780020
:1046d4000041780083702100930078000100e0001d
:1046e4000700320031009000800f550004003a00aa
:1046f400314090009fe0970080cf50004a0c320078
:104704000241e800a2679f008381e800e74f51005f
:10471400f1ff3a000ff1970063406100e14f500050
:1047240098023a0025f50700a0679f00e14f50006a
:10473400d1013a000517ab00cf01320090c28000ce
:104744008a0f500003003a00082207008001eb00a2
:10475400c90c370010c0b300806f9f0017f5070025
:10476400906f9f0015f50700a06f9f0013f50700d9
:10477400c06f9f0011f50700d06f9f000ff5070071
:10478400004578008040e800e16f9f0070cdb300e1
:10479400cd55e30002003e000140e800e06f9f00b9
:1047a40030cbb300cd55e30003003e006f689700a3
:1047b4000040e800e06f9f00f0c8b300cd55e3006f
:1047c40003003e006f6897000040e800e06f9f0020
:1047d400b0c6b300cd55e30003003e006f689700f8
:1047e4000040e800e06f9f0070c4b300cd55e300c3
:1047f40003003e006f6897000040e800e06f9f00f0
:1048040030c2b300cd55e30003003e006f6897004b
:104814000040e800e06f9f00af6897001f6a9700b0
:10482400ef9197000b01780010c0b3000ef507005c
:104834000004e0000401320010ae8000e10f4000eb
:1048440001013a000040eb00c0679f000b047800b0
:104854008001eb00826e2100af6a970006003700ea
:104864000440e800c0679f008301e8000281e8007b
:10487400e48f51004d00320003427800920078002a
:104884000100e000f6ff320061489000854f5000bf
:10489400f3ff3a0041009000880f5000f0ff3a0007
:1048a400e3cf510041003e0003804100896e2100a6
:1048b40060847c0060fc2f00008047008f3a070072
:1048c4003fa29700cfa29700048cbe004f609700d0
:1048d4000080fb000000400060817c00f2489000f2
:1048e4006f689700814f50002d003e00d5ad8000c9
:1048f400550198004f6097000080fb0000004000c5
:1049040060807c006f6b9700764898004f6097003a
:104914000080fb0000004000e0807c006f6897008e
:104924000a40500090509800ef90970090c2800089
:10493400810f5000090032000100780005f50700de
:10494400f94f500078003200c0c48000000cb2005f
:1049540001042000810f500073003a0083210700f6
:104964002ed5bf000008a300510b3a00cf6097007a
:104974000180fb0000004000826e2100600079008d
:1049840010509000e06f9f0080fa2f0000814700d4
:104994000b00780029f5070003012000360c3700ce
:1049a400722107008001eb00330c37006f909700f1
:1049b40051fa2f00018147008100e90081804700fe
:1049c4008df507000004e00003003a0067210700aa
:1049d4008001eb00280c37004f6097000080fb003b
:1049e40000004000816e2100608078002f699700ec
:1049f400624898004f6097000080fb000000400070
:104a0400608078004b0098004f6097000080fb00a6
:104a14000000400060807800d3ad8000530098000f
:104a24004f6097000080fb00000040006080780029
:104a34006f6a9700744898004f6097000080fb00ed
:104a4400000040006081780052009000880f500000
:104a54000600320012089000f18f2f000100600060
:104a64000080a0001009980005003700120890008b
:104a7400f18f2f00010060000030b300100998008e
:104a84004f6097000080fb0000004000826e210010
:104a9400e00079001108900000b0a0009008980090
:104aa4004f6097000080fb0000004000e0007900a8
:104ab4006f6897000a40500090509800ef9097005c
:104ac40090c28000810f500009003200010078007c
:104ad400a0f40700f94f500013003200c0c4800056
:104ae400000cb20001042000810f50000e003a00b7
:104af4001e2107002ed5bf000008a300ec0a3a00cf
:104b04006f6897000a405000e06f9f00cf609700e5
:104b140085fa2f00058147000b007800c7f40700d1
:104b240003012000d40b37002ed5bf000008a300da
:104b3400d1003a004f6097000080fb000000400065
:104b44008a6e2100e0047d00690490000800e00002
:104b54000a003a00e0c0b300f7390700e004980007
:104b64004f6097000080fb000000400060007d0063
:104b7400600490000800e000300032000f6b9700e2
:104b8400064c78001f68970010449800af6897009f
:104b9400214498004f69970032449800df699700d8
:104ba400434498006f6a970054449800fbf307004d
:104bb40060449800afe297000540e9007044980013
:104bc4004fe39700064c98001b4c98006fe0970049
:104bd400204c98003c4c98008fe89700414c98007a
:104be4002fe99700524c98004f6097000080fb001b
:104bf40000004000896e210060847c00a0fc2f002e
:104c040000804700bd3907005fa29700efa297001c
:104c140024049800350498004f6097000080fb003e
:104c24000000400060817c0012089000f18f2f008a
:104c34000100600000a0a00010099800cb2007002c
:104c44008001eb008c0b3700d0ad800041f40700ed
:104c5400f94f50000f003200c0c48000000cb200b5
:104c640001042000810f50000a003a00d3ad8000f7
:104c74008b8f5100120032007e58ec000041780006
:104c84008b00780003007800e9f507000004e000d9
:104c94000b003a00d1ad800050c28000808f5000dc
:104ca40072003a00e28721001241780090c280002d
:104cb4008b007800def507000004e0006b003a008a
:104cc400ef90970090c28000810f500009003200dd
:104cd400010078001ff40700f94f50001300320060
:104ce400c0c48000000fb20001062000810f5000f4
:104cf4000e003a009d2007002ed5bf000008a30037
:104d04006b0a3a006f6897000a405000e06f9f00fa
:104d140081fa2f000181470041c0b3000b007800e5
:104d240046f4070003012000530b370062fa2f00fa
:104d3400828047000c007800cdf507000004e000f5
:104d4400470032002ed5bf006145600044003a00a0
:104d540011532100914078000180fb002953210068
:104d64008f69970003f07c000140e8000080fb009d
:104d74001f6a970004f07c0001c0e8000080fb007b
:104d8400af6a970005f07c0063c040000080fb0020
:104d94003f6b970006f07c0064c040000080fb007d
:104da4004f69970002f07c0065c040000080fb0062
:104db400df69970003f07c00e6c040008000fd003e
:104dc40031f5b7008000fd00085321001844780035
:104dd40072f307008880fb0080f07c000840e90043
:104de4000080fb00a1c0b30001f07c0008c0e90012
:104df4000080fb003185210011f07c0063405400e9
:104e04000080fb002185210011f07c0064405400e7
:104e14000080fb006fe2970004f07c0065405400c2
:104e24000080fb000cf07c00664054000080fb0016
:104e34000af07c00674054000080fb0091c0b3007e
:104e440001f07c00684454000800780030f5b70095
:104e54003f90970021fa2f008f804000d8f307007d
:104e64004220070003012000030b37003f20070006
:104e74008001eb00000b3700af629700e4cf5200d3
:104e8400bd003a004df30700804678000b07780018
:104e940090c28000808f550003003a003320070041
:104ea4008001eb00f40a37002fe39700e14f530031
:104eb4008700360051fa2f0001804700b8f407003c
:104ec4000004e000750032005f6097000080fb0082
:104ed40000004000640040004a702100e0007d00b2
:104ee400310890000040a100b00898005f6097006e
:104ef4003cf307005f6097000080fb000000400067
:104f04006400400060007d00225b210012417800b3
:104f1400224098005f6097000080fb000000400082
:104f24006400400060007d008ff1970033489800d2
:104f34005f6097000080fb000000400064004000b8
:104f440060007d001ff29700244898005f6097007e
:104f54000080fb00000040006400400060007d0011
:104f64004c0098005f6097000080fb000000400048
:104f74006400400060007d003b0098005f60970083
:104f84000080fb000000400064004000e0007d0061
:104f9400afe297000540e900c04098005f609700c9
:104fa4000080fb00000040006400400060007d00c1
:104fb4001fe39700364098005f6097000080fb0075
:104fc400000040006400400060047d00b2d5bf00d2
:104fd400d938070080047800000c78000000e00055
:104fe4000e003a005f6097000080fb000000400064
:104ff4006400400060007d00d13807005f609700c6
:105004000080fb00000040006400400009307d0087
:10501400d61f070089017800970a37000040eb008b
:10502400a0679f005f6097000080fb0000004000c5
:105034006400400041702100608078009000780096
:1050440040c0b3008048780010c0b300a0679f0040
:10505400b255e2000f0032004a702100af6497009d
:105064005f6097000080fb00000040006400400087
:1050740060007d000984fb0010044400cff20700a7
:10508400004c78008944e800a9679f00b255e2000b
:10509400f2ff3a000417a8000d003700b31f070001
:1050a4008001eb00740a370068b8ef00af60970026
:1050b4000181fb006a11b900020078005c18b40099
:1050c400a2c0b30088007800cf3507002200370063
:1050d4000e0078001ff30700a0679f00f94f5000ef
:1050e400250032003ef50700a01f07000040eb003a
:1050f400b2f5b700225c2100a38821000700090053
:1051040033597800a45b2100a58821000700090019
:10511400355a7800a0679f0008862100a2c0b3001a
:105124000440bc00e1c2800081004100a2c0b30081
:10513400080078007f35070040c38000800f5700c7
:10514400d9ff32002f6397000640e800a0679f0054
:10515400e74f5000f1ff3600c30320000d68a300a1
:10516400450a3a0001c2b30001c06600b2f5b700b7
:10517400d3042000400a37007c1f07008001eb00a5
:105184003d0a37002fe19700e14f510078003600c7
:1051940053fa2f000380470001f407000004e000e5
:1051a400700032005f6097000080fb000000400048
:1051b400640040004b702100e0807d0031089000c5
:1051c4000040a100b00898005f60970085f20700d6
:1051d4005f6097000080fb00000040006400400016
:1051e40060807d00245b21001442780024409800f4
:1051f4005f6097000080fb000000400064004000f6
:1052040060807d008ff29700354898005f609700ba
:105214000080fb00000040006400400060807d00ce
:105224001ff39700264898005f6097000080fb00fa
:10523400000040006400400060807d004c00980045
:105244005f6097000080fb000000400064004000a5
:1052540060807d003a0098005f6097000080fb004a
:105264000000400064004000e0807d002fe19700d2
:105274000240e900c04098005f6097000080fb0096
:10528400000040006400400060807d009fe19700c2
:10529400334098005f6097000080fb0000004000ee
:1052a4006400400060847d00b2d5bf00223807004e
:1052b40080047800000c78000000e0000e003a0042
:1052c4005f6097000080fb00000040006400400025
:1052d40060807d001a3807005f6097000080fb0043
:1052e400000040006400400009b07d001f1f07005b
:1052f40089017800e00937000042eb00a4679f00b1
:10530400abad80002c5b21001c4678000c04e0004f
:105314000f0032004d702100af6497005f6097006a
:105324000080fb00000040006400400060807e00bc
:105334000984fb001004440020f20700004c7800ac
:105344008944e800a9679f00b255e200f2ff3a00e1
:10535400abad88000c007800b2f5b7000417a800c4
:1053640003003700011f07008001eb00c20937006a
:1053740090c280008a0f500003003a00fb1e070011
:105384008001eb00bc093700daad8800530320002c
:10539400b90937008ff2970063c06200e14f5000f3
:1053a4003d023a0005f2070080407800a0679f00a4
:1053b400e64f500053003200e74f500004013a001a
:1053c40005f7a900fdf107000080fb0001f02f00a4
:1053d4000104640000047400f8f107004800dd00d3
:1053e4000884fb0000047400f4f107000045780011
:1053f400de1e0700006e210011f707000004e00024
:10540400ab083200108421001ef70700f94f50004a
:10541400150032000043eb00a6679f00c0c3800064
:10542400a0c38800a98821000c202000a1c380000b
:1054340022c1b30009007800be340700c0c4800054
:10544400002cb2008c0f500007003200af609700b0
:105454008140e800a1679f00200120007438b40057
:10546400f8cf5000f1ff36000a04e00005003200d6
:105474002e75a9000a007800b2f5b700a303200036
:105484007d09370098c28800c21e070098d8a90079
:1054940098f8a90013842100846d210007000900f5
:1054a400b45978005bc288004fe0970093f8b700c6
:1054b4000b00780092f8b700c2b68000d3b6800023
:1054c40052c4880063c48800e4b68000f5b6800046
:1054d40074c4880085c48800a0c3800022c1b300be
:1054e400a1882100c8340700b275ef00c8ad880058
:1054f40085c2800055ae88000517a800a3032000cc
:105504005d093700adf10700b2f5b700971e07003b
:1055140011532100914078008181fb0072c0b300d7
:1055240020532100827178008140e8000100780056
:1055340031f5b700806d2100d2f60700f94f500015
:1055440020003a0010c0b3001df9b7005af3070059
:105554000004e0000400320089f30700a0679f0004
:10556400f94f500015003a001253210012417800ff
:105574008280fb0023532100d0cfb30080f0790058
:105584000240e8000080fb0080c0eb0001f07900dd
:1055940002c0e8000080fb0021c0b30001f07900e4
:1055a400634141000200780031f5b7000040eb0090
:1055b4001df9b700004678001400370027f40700ef
:1055c4001d79ef0012532100124178000280fb0084
:1055d400235321002189210011f079000240e800c1
:1055e4000080fb003189210011f0790002c0e8003d
:1055f4000080fb008040eb0001f079006341410032
:105604000200780031f5b7001cc0b300c67c21004d
:1056140020d2280007000900305b78000040eb002e
:10562400a0679f000042780025532100c67c21001a
:105634000253210012417800804178008280fb00ef
:105644000480fb006700100060407b0080f07a005b
:105654000241e9008341e80003427800e7cf5100aa
:10566400f6ff36000200780030f5b7000040eb008a
:10567400a0679f000042780029532100856d210016
:1056840080417800024478008280fb000480fb00a3
:105694006700100060c07a0080f07c000241e900dd
:1056a400024578008341e80003427800e7cf5100c7
:1056b400f4ff3600a3679f000001fd0030f5b7003a
:1056c4000001fd0035f107008a80fb0080f07c00ba
:1056d4000a40e9000080fb0011c0b30001f07c0027
:1056e400634054000080fb003185210011f07c00f0
:1056f400644054000080fb002185210011f07c00ef
:10570400654054000080fb00cfe0970001f07c006e
:10571400664054000b4178000080fb000bf07c00d5
:10572400674054000080fb0081c1b30001f07c009d
:10573400684054000080fb0091c0b30001f07c007d
:105744006940540030f5b7000c04e0000200320058
:1057540004f7a8000100370004f7a900b2d5bf0080
:10576400b4f7b70010c0b300b5f7b70091c4800018
:10577400e1bd8800c4b68000d5b6800024be880090
:1057840035be8800e0b68000f1b6800040be8800d7
:1057940051be8800cfe097004808dd008280fb00fe
:1057a40001007000b0b6880021fa2f008f804000fd
:1057b40083f1070090ad80006a006000ea0f50009a
:1057c400bd073200b555a80003012000aa08370020
:1057d4000517ab002d013200e14f5000ddfb320014
:1057e400e34f50006a003a002ed5bf0061476000c5
:1057f40026013a0019532100994478000980fb00de
:105804002a53210001707d000944e8000004fd00d2
:1058140031f5b7000004fd00e8f007000884fb0040
:1058240000747d0089c4e8008004fd0031f5b700f0
:105834008004fd00e1f0070011532100914078003d
:105844000181fb0000717d008140e8008000fd00c3
:1058540031f5b7008000fd00d8f007001153210096
:10586400914078000181fb0000717d008140e800d7
:105874008000fd0031f5b7008000fd00bb1d07006e
:1058840090c28000800f560004003a000e00780099
:1058940031f5b7008001eb0077083700025321008f
:1058a400124178000280fb00235321001fe297007d
:1058b40004f079000240e9000080fb00afe29700a9
:1058c4008540e90001f0790002c0e9000080fb0096
:1058d4004fe3970006f07900634051000080fb001d
:1058e4000bf07900644051000080fb00efe097006a
:1058f40001f07900654051000080fb000cf0790054
:10590400664051000080fb000fea970004f0790024
:10591400674051000080fb00afea970005f0790072
:10592400684151000200780030f5b70026fa2f00d4
:105934000f034300640443006301430088007800bc
:105944000c0078006af007000004e0000a003a0046
:10595400880078000c007800c5f207000004e0001d
:1059640005003a0031f5b700f0c7b30030f5b700d1
:105974008001eb00400837003f90970021fa2f0088
:105984008f8040000ef10700030120003a08370021
:10599400e24f5000bd003a0088f00700e0df9f00ae
:1059a40086f00700f0df9f0084f00700c0779f00b7
:1059b40082f00700d0779f0080f00700e0779f0017
:1059c4007ef00700b0e79f00f0779f007bf00700b0
:1059d400004778006fda9700bf9997000b017800b1
:1059e400ffd8970010c0b3009ff007000004e00048
:1059f40040003200af9e97000001eb00836e21004f
:105a0400050037000a45e8000201e8008381e80048
:105a1400e40f51000d003200024578008204780042
:105a2400930078000100e000f6ff32006148900026
:105a34007fda9700804f5200f2ff3a004100900055
:105a44008d0f5000efff3a0003003700e44f55007c
:105a54008a0032008a84fb0009844400806e21009d
:105a640000044400180078002050900062c0b30085
:105a74000440bc0061c380008100410062c0b300e7
