:020000040000fa
:080000000002040000000000f2
:020000040000fa
:100400006f1322000e7f22000e0188000000000002
:100410000c000700006e2900010020000f000700fb
:10042000000020000000e000020032000000020096
:100430000000000028870200000000000040da00f1
:100440000000fe00807620000000e0000200320084
:10045000002020009001880000000600a102880012
:10046000800078000000eb001a003700e2804000b6
:1004700054a0b4009101ba00e280400054a0b4003e
:100480009102ba00e280400054a0b4000002eb00e8
:10049000472bde00f507b200a6018800602ce100c2
:1004a00008003a000049eb000201e80002003900b0
:1004b0003420ec0002f0a0008301e900f9ff3e00c7
:1004c000040037006128e100010032000082eb00e7
:1004d000040007001101ba000200e000e3ff3a0047
:1004e0000000060004d0a300e20f49001c00390000
:1004f000810278003549ba000201e80002003900a3
:100500003420ec0002f0a0008301e9000f0032006b
:100510002549ba000201e800020039003420ec004d
:1005200002f0a0008301e900080032000400e000ae
:100530000600320015c9ba000201e80002003900c5
:100540003420ec0002f0a0008301e9008180e80083
:1005500054a0b4000300e000e2ff3a0000000600ef
:100560009102ba00055978008301e900f7ff3200d3
:10057000c82ade00055978008301e900f3ff320044
:100580000400e000f1ff320011d9ba00eeff37009d
:100590000040da000000fe0003f0a200889fbe00c9
:1005a0008a9fbe008c1f7800ac000700b3003300a8
:1005b0006450e1004f0032006420e100520032003c
:1005c00003826c0007003b000905d0000306d00041
:1005d000820f54000c065d00020039000200320058
:1005e00089017800030678008582550004003d00eb
:1005f0000003fd008103fd008502ea008b854200b7
:10060000840f720002003b0060001000e0801800c0
:100610006011b8000005eb007a28e1000a003900fb
:1006200006007800c75ddd00f707b200878075001f
:100630002d003700828171000a0178006105600099
:100640008180d1000080d3008502e900f9ff3b00e2
:10065000060440008784480002003b006004140048
:10066000e0841c000988a300070032008a81710021
:1006700082817100610164008904d1000884d30083
:100680008b05e800170037000978a30013003a0033
:100690000b00e000130034008b05e900080444005f
:1006a00089844c000a4474000978a3000d003a00c4
:1006b0000b00e000070034008b05e900080444004b
:1006c00089844c0001003a000b0020000978a30047
:1006d000f7ff32000001eb00020037008281710059
:1006e0000a017800370007000cf0a70001f0a00015
:1006f0006b0037006420e10002003a00838f6c0039
:100700006b0033000801be000200be006400370029
:10071000f4ff2f009d003700889fbe008a9fbe0017
:10072000010578000100e0000400350008003c00ed
:100730000000e000200032000500370060001000db
:10074000e080180002003b0001f02c001a00370086
:100750000004be006011b8006b0920000982cf00c0
:10076000020039000882cf000441b0006942520003
:100770000e00320008003b008281710061016400bc
:100780008904d1000884d3008b05e8000442e80006
:10079000f9ff3a00050037000804440089844c0042
:1007a0008b05e9000442e900fbff3a000500070061
:1007b0000af0a70001f0a0004f05be004f04be00e4
:1007c0000000060081002000618055000b003d0004
:1007d0000b00200061fe2f000100e1001d0034002d
:1007e00082817100610164008904d1000884d30012
:1007f0000000e800faff3a00710020006100640088
:10080000030070000200600009003200610444002f
:10081000e0844c000988a500050032008b05e80043
:100820006808e10002003a008904d1000884d3007e
:10083000f20f20000258e10005003d00c75ddd0019
:10084000f907b200898075000800780000000600f2
:100850000bf827008b007800000005000004be00a4
:10086000650007000003be000405be000200be00d4
:1008700061000700844f7500000006000200be0002
:100880006450e100050036006420e10002003600fb
:100890000968a30001003a000800be000160a00042
:1008a0004f0678004f05be004f04be000000060052
:1008b000f0ff2f00f1ff2700f9ff3700889fbe00ef
:1008c0008a9fbe008c1f7800e4ff0700ebff330017
:1008d00003866c006450e100240032006420e100d3
:1008e000270032006150e100220032006120e10067
:1008f000210032008b854200eb07b1000134b800c3
:10090000003ab8000804420089844a00013ab8005d
:100910000030b8008880400009014a00040033001c
:100920000000400081804800020149008b05e90079
:10093000c909dd00830170000100320013002000ae
:10094000c814de004814dd004709de001200b200c2
:10095000c808de00088470009aff070001f0a100bb
:100960000cf0a70001f0a000cdff37006120e100ee
:10097000cfff32000801be000200be00f7ff3700c3
:100980006150e100fcff3a00c9ff3700889fbe00bc
:100990008a9fbe00841f7800b0ff07004f007800d8
:1009a00011003300f0ff2f00838f6c0006003b0026
:1009b000040565000a00a7000800370009f0a6003a
:1009c0001000200008003700820f5400838f5c0065
:1009d000030039001000200001003e00000020004c
:1009e00009f0a7000000ea004f05be004f04be005a
:1009f0000000e00000000600c70ade00f107b200b8
:100a0000f50fb20008003200e1cf420002003200d0
:100a10000170a00024000500810f70000100320069
:100a20000408050044000500810f700002003a0030
:100a3000140005008502e9000000400081c0480064
:100a4000fcff3b000170a000240005000400fa0038
:100a5000e0bf9f00e4815700812978000002eb008d
:100a60000f0037006fb89700904078007fb897006c
:100a7000104078000402e80080cf500004003200eb
:100a80008180fb000080fb000080500007003700e1
:100a90006fb897000000e800e0bf9f009309e800ee
:100aa000820f5200efff3a000000eb000080fa00d6
:100ab000000006008001eb000200370061f07900c1
:100ac0008301e800828f5100fcff3a00000006001d
:100ad000889fbe008a9fbe008c9fbe0000017800e8
:100ae00041d421001100e0000b003a0080d4210025
:100af00020ea880000ea880041ea880011ea8800bc
:100b0000214090000004a000a040980061409000a7
:100b10000004a000e0409800e7004100c208de00a9
:100b2000c20cdd0014ea8000edd421006013220025
:100b30000d05500022002000811f780011000900df
:100b40000205d80000067800cf007800c308dd0059
:100b5000e48540008001eb00e6d4210045d421006b
:100b60000100370001027800244090000008a30033
:100b7000020032000a003700110a78009400780061
:100b8000214090000008a300fbff32000901420051
:100b9000828f500002003900840f5100460031005e
:100ba00094007800848f5000eeff3e00868f500046
:100bb00002003900858f5000eaff390000ea80000a
:100bc000800f52004f003a00858f50004d003a00d0
:100bd0008301e800e18f5100e2ff36008c8f540062
:100be000040036008a8f5400020031000b047800a4
:100bf00012003700614ab8006151b900b0ff2f0000
:100c0000010020000200500083805800800f520035
:100c1000818f5a0002003500090478000700370070
:100c20000d805400921322000200400011000900c0
:100c30000a80d8000a80b900000478000800780013
:100c40006800070080017800e10f40002d003200ad
:100c500000ea80000308780002ea80006400410096
:100c6000a2409000808f5100020032000104a000d9
:100c7000010037000104a1002141980008804100d3
:100c8000640050008009780000ea880042d4210006
:100c90000208780001ea8000214090000004a000d2
:100ca000a0409800234090000004a100a0419800bb
:100cb00002027800a7ff370012ea8800828f5000f6
:100cc0000900360092007800e0d32100a241900094
:100cd00003487800e1e98800140978008040eb00bf
:100ce00010ea80002140980010ea8000000a780095
:100cf000244090000004a0002042980064004200bc
:100d0000010037000000eb004f06be004f05be009b
:100d10004f04be00000006006400500010ea880086
:100d2000a04090000104a1002140980000000600ae
:100d3000889fbe008a9fbe0000057800e401500035
:100d400013001000c285de00234090000008a300bd
:100d50000400320013ea8800234090000004a10040
:100d6000a04198000100780059ff070000047800b6
:100d70000000e000170032008a0f5000150032001a
:100d800060b8970008005000c284de00898f5500cb
:100d900001003600890578004259dd008a0078009c
:100da0000800780043ff07008a0f54000900310053
:100db0004248dd00000044008a0f50000500360064
:100dc0000a00500000004400e2e98000f3e98000de
:100dd0000288be00080078004f05be004f04be0028
:100de00000000600889fbe008004780060ea800052
:100df0000000e00003003a00100007000000e000df
:100e00000a00350060ea80000900e00002003a00b4
:100e10000004780006003700000478000900400054
:100e2000060007000000e00001003d000084eb0028
:100e3000080078004f04be00000006008000780023
:100e40000000e00004003a00e0d4210060ea8800dd
:100e500001017800060037000081eb0060132200da
:100e6000808f500002003e0061ea88000001eb0024
:080e70000200780000000600fa
:020000040000fa
:020000040002f8
:04aff400ffff00005b
:020000040000fa
:020000040002f8
:04aff8002ef800002f
:020000040000fa
:020000040002f8
:04affc00d93f000039
:020000040000fa
:10000800c8020000c8020000c8020000c8020000c0
:10001800c8020000c8020000c8020000c8020000b0
:10002800c8020000c8020000c8020000c8020000a0
:10003800c8020000c8020000c8020000c802000090
:10004800ce7e0000c8020000c8020000347f000015
:10005800c80200000c7f0000c8020000c8020000af
:10006800c8020000c8020000c8020000c802000060
:10007800988b0000c8020000c8020000c8020000f7
:10008800c8020000c8020000c8020000c802000040
:10009800c8020000c8020000c8020000c802000030
:1000a800c8020000c8020000c8020000c802000020
:1000b800c8020000c8020000c8020000c802000010
:1000c800c8020000c8020000c8020000c802000000
:1000d800c8020000c8020000c8020000c8020000f0
:1000e800c8020000c8020000c8020000c8020000e0
:1000f800c8020000c8020000c8020000c8020000d0
:10010800c8020000c8020000c8020000c8020000bf
:10011800c8020000c8020000c8020000c8020000af
:10012800c8020000c8020000c8020000c80200009f
:10013800c8020000c8020000c8020000c80200008f
:10014800c8020000c8020000c8020000c80200007f
:10015800c8020000c8020000c8020000c80200006f
:10016800c8020000c8020000c8020000c80200005f
:10017800c8020000c8020000c8020000c80200004f
:10018800c8020000c8020000c8020000c80200003f
:10019800c8020000c8020000c8020000c80200002f
:1001a800c8020000c8020000c8020000c80200001f
:1001b800c8020000c8020000c8020000c80200000f
:1001c800c8020000c8020000c8020000c8020000ff
:1001d800c8020000c8020000c8020000c8020000ef
:1001e800c8020000c8020000c8020000c8020000df
:0801f800c8020000c80200006b
:020000040000fa
:10020800c8020000c8020000c8020000c8020000be
:10021800c8020000c8020000c8020000c8020000ae
:10022800c8020000c8020000c8020000c80200009e
:10023800c8020000c8020000c8020000c80200008e
:10024800ce7e0000c8020000c8020000347f000013
:10025800c80200000c7f0000c8020000c8020000ad
:10026800c8020000c8020000c8020000c80200005e
:10027800988b0000c8020000c8020000c8020000f5
:10028800c8020000c8020000c8020000c80200003e
:10029800c8020000c8020000c8020000c80200002e
:1002a800c8020000c8020000c8020000c80200001e
:1002b800c8020000c8020000c8020000c80200000e
:1002c800c8020000c8020000c8020000c8020000fe
:1002d800c8020000c8020000c8020000c8020000ee
:1002e800c8020000c8020000c8020000c8020000de
:1002f800c8020000c8020000c8020000c8020000ce
:10030800c8020000c8020000c8020000c8020000bd
:10031800c8020000c8020000c8020000c8020000ad
:10032800c8020000c8020000c8020000c80200009d
:10033800c8020000c8020000c8020000c80200008d
:10034800c8020000c8020000c8020000c80200007d
:10035800c8020000c8020000c8020000c80200006d
:10036800c8020000c8020000c8020000c80200005d
:10037800c8020000c8020000c8020000c80200004d
:10038800c8020000c8020000c8020000c80200003d
:10039800c8020000c8020000c8020000c80200002d
:1003a800c8020000c8020000c8020000c80200001d
:1003b800c8020000c8020000c8020000c80200000d
:1003c800c8020000c8020000c8020000c8020000fd
:1003d800c8020000c8020000c8020000c8020000ed
:1003e800c8020000c8020000c8020000c8020000dd
:0803f800c8020000c802000069
:020000040000fa
:100e7800656e000064000000546500006d7000009d
:100e88006572000061740000757200006520000042
:100e98002868000065780000293a0000200000005a
:100ea8000d0a000000480000756d0000696400002c
:100eb8006974000079200000286800006578000047
:100ec800293a0000200000004a75000073740000f1
:100ed80020730000656e000074200000646100004b
:100ee80074610000207000006f73000069740000d6
:100ef800696f0000206600006f7200002072000019
:100f0800657100007565000073740000206f0000b3
:100f180066200000526f00007574000065720000c2
:100f28005f4500004d4200000d0a00000056000019
:100f38006f6c0000746100006765000020280000e5
:100f480068650000782900003a200000004400008d
:100f58006574000065630000746900006e67000036
:100f6800206c00006f770000207000006f77000091
:100f7800657200000d0a0000005200006f75000045
:100f88007465000020520000657000006c79000054
:100f9800204f00004b0d00000a0000002052000006
:100fa8006f75000074650000205200006570000035
:100fb8006c79000020460000616900006c65000043
:100fc800640d00000a0000004e7500006d6200000c
:100fd80065720000206f0000662000005a6900005a
:100fe8006762000065650000206e000065740000ff
:100ff800776f0000726b00002068000061760000c7
:101008006520000062650000656e00002066000033
:10101800696e0000643a0000200000005072000071
:101028006570000061720000652000006a6f0000b2
:10103800696e0000207400006f2000006e650000db
:10104800747700006f7200006b3a000020300000d7
:10105800780000004e6f000074200000666f0000ea
:10106800756e00006420000064650000736900006c
:1010780072650000206e000065740000776f000044
:10108800726b000020300000783100004141000000
:10109800410d00000a000000466f0000756e000058
:1010a8006420000064650000736900007265000038
:1010b800206e000065740000776f0000726b0000fe
:1010c800203000007831000041410000410d00004f
:1010d8000a0000004e650000747700006f7200007f
:1010e8006b28000073290000206600006f7500005f
:1010f8006e6400002e200000547200007969000020
:101108006e670000207400006f2000006a6f000006
:10111800696e000020000000207c00002000000014
:101128004e6f0000206e000065740000776f0000ad
:10113800726b000073200000666f0000756e00007f
:10114800642e00002054000072790000696e0000cf
:101158006720000061670000616900006e210000df
:101168000d0a00000020000045720000726f0000a8
:1011780072200000666900006e640000696e00005d
:10118800672000006e650000747700006f72000031
:101198006b2e00002054000072790000696e000078
:1011a8006720000061670000616900006e2e000082
:1011b8002e2e00000d0a0000004a00006f69000092
:1011c8006e2000004f4b0000210d00000a000000b7
:1011d8005374000061740000757300003a20000029
:1011e800002e0000204300006f7500006c640000b2
:1011f800206e00006f740000206a00006f69000014
:101208006e20000061730000206f00007270000003
:10121800686100006e2e000020000000547200007b
:10122800796900006e6700002061000067610000b6
:10123800696e0000210d00000a0000004d750000d5
:1012480073740000207400007279000020610000af
:10125800732000006e650000772000006e6f0000ac
:1012680064650000210d00000a0000002e20000027
:10127800436f0000756c0000642000006e6f000072
:10128800742000006a6f0000696e0000207300007f
:10129800656c000065630000746500006420000050
:1012a8006e650000747700006f7200006b3a0000f2
:1012b800200000002e200000547200007969000010
:1012c8006e670000206e0000657800007420000042
:1012d80064690000736300006f76000065720000a7
:1012e80065640000206e000065740000776f0000e0
:1012f800726b00003a200000002e0000204300001e
:101308006c650000616e0000696e000067200000d7
:1013180075700000206100006e64000020720000fb
:101328006574000072790000696e00006720000093
:1013380064690000736300006f7600006572000046
:10134800792100000d0a0000005200006f750000ae
:101358007465000072200000537400006172000080
:101368007465000064210000204500006e610000e3
:10137800626c0000696e0000672000006a6f000060
:10138800696e0000732e00002e2e00000d0a00006a
:1013980000200000526f00007574000065720000a4
:1013a8002073000074610000727400002046000081
:1013b800616900006c650000642e00002057000081
:1013c80065200000636100006e6e00006f7400000d
:1013d800207200006f750000746500002066000030
:1013e800726100006d650000730d00000a000000c6
:1013f8004a6f0000696e0000696e000067200000f7
:1014080070650000726d000069740000746500006a
:10141800642100000d0a00000043000075720000fe
:10142800726500006e740000204e000065740000b4
:10143800776f0000726b00002041000064640000b8
:10144800726500007373000020690000733a0000a1
:1014580020000000204a00006f6900006e20000094
:1014680070650000726d0000697300007369000008
:101478006f6e000020460000616900006c65000086
:10148800642e000020570000652000006361000002
:101498006e6e00006f740000206100006c6c00002c
:1014a8006f770000206a00006f6900006e7300000b
:1014b8000d0a0000004e00006f6400006520000067
:1014c800002000005769000074680000204d0000eb
:1014d8004143000020410000646400007265000080
:1014e8007373000020000000206a0000757300007c
:1014f800742000006a6f0000696e000065640000d7
:101508002e0d00000a00000057650000206800004a
:1015180061760000652000006c65000066740000bc
:101528002074000068650000206e000065740000eb
:10153800776f0000726b00000d0a00000041000088
:101548006e6f00007468000065720000206e000075
:101558006f640000652000006861000073200000cf
:101568006c65000066740000207400006865000067
:10157800206e000065740000776f0000726b000039
:101588000d0a0000005a000069670000426500006b
:101598006520000053740000616300006b200000a8
:1015a800686100007320000062650000656e00003d
:1015b8002072000065730000657400000d0a0000c9
:1015c800002000004c65000061760000696e000094
:1015d8006720000074680000652000005a69000058
:1015e8006762000065650000206e000065740000f9
:1015f800776f0000726b00000d0a00000070000099
:1016080061720000616d0000732e000041500000ff
:1016180053440000455f000044410000544100006d
:101628005f6900006e640000696300006174000077
:10163800696f00006e2e0000436c00007573000097
:101648007465000072490000642e000056610000b5
:101658006c2e00002e3a0000004300006861000074
:101668006e67000065200000746f0000206d0000a8
:101678006f6400006520000053610000766500007b
:10168800456e000065720000677900000d0a0000d1
:1016980000430000686100006e67000065200000dc
:1016a800746f0000206d00006f640000652000006a
:1016b8004163000074690000766500000d0a0000af
:1016c800004a000075730000742000007365000074
:1016d8006e74000020640000617400006120000046
:1016e800666f0000722000007265000071750000ce
:1016f80065730000742000006f660000205200002f
:101708006f75000074650000725f0000454d0000b1
:10171800420d00000a000000205300005441000060
:1017280054550000535f0000444900005341000035
:10173800424c0000450d00000a000000435900001b
:10174800434c0000455f00004c4500005645000032
:101758004c2000003d2000000053000045540000cc
:101768005f500000544300003036000020000000a5
:10177800536500006e640000696e00006720000079
:101788006c6f00006f700000206200006163000051
:101798006b0d00000a000000204e00006f6e000074
:1017a8002d73000075700000706f000072740000e7
:1017b800204300006c75000073740000657200001f
:1017c800494400002e2e00002e0d00000a000000e3
:1017d80020450000727200006f7200002073000044
:1017e800656e0000646900006e670000206d0000ef
:1017f8006573000073610000676500000d0a000052
:1018080000530000656e0000646900006e67000008
:10181800206d0000657300007361000067650000bb
:10182800204f00004b2100000d0a0000005000006e
:1018380065720000666f0000726d000020470000ae
:10184800726f000075700000204f00007065000086
:1018580072610000746900006f6e00000d0a0000dc
:101868000054000072790000696e000067200000d3
:10187800746f0000206a00006f6900006e2000008d
:101888006e650000747700006f7200006b20000026
:1018980061730000206100006e2000006f7200007c
:1018a80070680000616e00002e2e00002e0d0000f2
:1018b8000a00000054720000796900006e67000099
:1018c800207400006f2000006a6f0000696e00003d
:1018d800206e000065740000776f0000726b0000d6
:1018e8002061000073200000612000006e65000088
:1018f80077200000646500007669000063650000d9
:101908002e2e00002e0d00000a0000005365000076
:101918006e640000696e00006720000077610000b7
:10192800726e0000696e0000672000006c6f000096
:10193800772d0000706f00007765000072200000ae
:10194800746f000020520000450d00000a000000de
:10195800536500006e640000696e00006720000097
:1019680070650000726900006f6400002064000068
:101978006174000061200000746f000020520000b4
:10198800452000000d0a00000042000061740000bc
:101998002064000061750000206e0000677500007b
:1019a800200d00000a0000004261000074200000c1
:1019b8006461000075200000746800007563000011
:1019c800200d00000a000000205500006e6800008d
:1019d800616e0000646c0000656400002070000007
:1019e800726900006d690000746900007665000086
:1019f8000d0a0000004900006e6900007420000014
:101a08005541000052540000320d00000a00000049
:101a1800496e0000697400002048000061720000ef
:101a28006477000061720000650d00000a00000084
:101a38005a690000676200006565000020490000df
:101a48006e690000740d00000a0000002d5f0000a0
:101a58002d5f00002d5f00002d5f00002d5f00004e
:101a68002d5f00002d5f00002d5f00002d5f00003e
:101a78002d5f00002d5f00002d5f00002d5f00002e
:101a88002d5f00002d5f00002d5f00002d5f00001e
:101a98002d5f00000d0a0000005a00006967000071
:101aa8004265000065200000526f00007574000058
:101ab8006572000020530000656e0000736f00001f
:101ac80072340000002000002d2000005226000083
:101ad80044200000627900002057000053410000b4
:101ae8004e2d00004c6100006234000031310000ce
:101af8000d0a000000540000726100006e730000bf
:101b08006365000069760000657200002d4d0000d5
:101b180052460000323400004a340000300d000004
:101b28000a000000020100000f0f0000000500007d
:101b38000080000010060000000000000000000007
:101b480000000000000a0000000000000100000082
:101b5800020000000300000004000000050000006f
:101b68000600000020000000210000002200000004
:101b78000a000000008000000180000002800000d0
:101b8800038000000480000005800000068000003b
:101b9800208000002180000022800000f00000006a
:101ba80003010000ffff0000000300002200000006
:101bb80009000000190000000700000000000000f4
:101bc800000000000000000000000000000000000d
:101bd80000000000060000000500000006000000ec
:101be8000a0000001a0000000800000001000000c0
:101bf80000000000000000000000000000000000dd
:101c080000000000000000000000000000000000cc
:101c180000000000000000000000000000000000bc
:101c280000000000000000000000000000000000ac
:101c3800000000000000000000000000000000009c
:101c4800000000000000000000000000000000008c
:101c5800000000000000000000000000000000007c
:101c68000000000010c1000000400000ce0000008d
:101c7800000000007f0000000000000000000000dd
:101c88007800000000000000b40000000000000020
:101c98002c010000000000001c02000000000000f1
:101ca800fc03000000000000bc070000000000006a
:101cb8003c0f0000000000003c1e00000000000077
:101cc8003c3c0000000000003c78000000000000e0
:101cd8003cf00000000000003ce0000001000000b3
:101ce8003cc00000030000003c800000070000002a
:101cf8003c0000000f0000003031000032330000cb
:101d08003435000036370000383900004142000001
:101d180043440000454600007374000061720000ef
:101d2800740a0000006500006e64000000000000f6
:101d3800040000000000000000a3000004000000f0
:020000040000fa
:101d48008000eb0000d58000f007b20001003200ef
:101d5800110020000100780000000600889fbe00e6
:101d6800cab8a900aa3cef00ac3cef0060e48000d0
:101d780040e48800e9c921000044eb0040e4800009
:101d880022c1b30089007800414107000844e800f7
:101d980020012000883cb400f94f5400f7ff3a00b6
:101da8000040eb0090fcb7000004fd0091fcb70078
:101db8000004fd009afcb7009bfcb7009c1ca9001e
:101dc800c0532a0070e4880050e4800002c1b300c8
:101dd800e1c821002e4107004f04be0000000600a4
:101de800889fbe008a9fbe008c9fbe008106780037
:101df8000206780001e48000f1e388002bc8210086
:101e0800000578008044eb0009447800f1e3800085
:101e180062c0b3000b007800e840070010e48000bf
:101e28008a0f500002003a0019c0b30003003700bf
:101e38000844e800600020007e3cb400ef4f5400e6
:101e480003003e000904e00003003a00efff3700fa
:101e58000904e0000600320030e48000800e7800bb
:101e680084dcbf00004e78000980fb0003003700c7
:101e780030c0b300004e78000000eb004f06be00f3
:101e88004f05be004f04be0000000600025bec00d8
:101e980002fbb70002003a0010c0b30002fbb70013
:101ea80002dbbf000080fb00000006004ed9bf0027
:101eb8008000eb00050032000040e9004ef9b70051
:101ec80080ca8000b080fb0080ca880001007800ca
:101ed80000000600889fbe008a9fbe00eac9210054
:101ee8000004eb000080fb0000004000e405400017
:101ef8007240b9008c1cb40040e4880022c1b300d1
:101f0800800078000a007800ac40070031e58000c6
:101f1800b0ca8000808f500009003a0000aa210052
:101f28006b0078008880fb00f680400080804000cd
:101f3800114090000004a100904098000300370071
:101f48000804e800f90f5400e9ff3a004f05be0005
:101f58004f04be0000000600889fbe008a9fbe0096
:101f68008c1f7800804378000045eb0046a82100cc
:101f7800c8a82100960278000500e0000800320099
:101f88000704e0000700320065489000814f5000c8
:101f980004003a0045009000820f500001003a000a
:101fa8001ac0b3000683e800860f5400f1ff3a0018
:101fb80009c1b3000404e0000100350089c0b30082
:101fc8000a04e0001a00320000e48000f0e3880010
:101fd8000904e000160032002cc82100030578002f
:101fe8008045eb000b447800f1e3800062c0b30049
:101ff8000c0078007140070010e480008a0f500040
:102008000300320020e48000e30f500001003a0092
:102018001bc0b3000844e800600020007e3cb40008
:1020280088cf5400f0ff3a000b80fb000100370016
:102038000000eb004f0678004f05be004f04be00bd
:1020480000000600889fbe008a9fbe0080057800b9
:1020580060e4800040e48800eac921000004eb0045
:1020680041e4800022c1b3000a0078005340070011
:10207800ad3cab000500320030e580008b0f50000e
:1020880002003a000880fb0006003700200120000b
:10209800883cb4000804e800f90f5400f0ff3a0047
:1020a800080078004f05be004f04be00000006007f
:1020b80080017800ca18a80022c0b3000200780086
:1020c80054f9b70060df800090ca880074df800090
:1020d800b4ca88000001fd0055f9b7000001fd00f1
:1020e80030cb8800f3ca8800e8dbbf00804878005e
:1020f80068f9b7005179ef00e18f4100080032001c
:102108005119a80003007800ceff0700f94f5000ce
:1021180003003200ad1cab0001003a005159a80081
:1021280010c0b30050f9b700000006000200fa0022
:10213800889fbe008a9fbe008c1f7800000678002a
:1021480082057800e4cf5000130032000180fb00c4
:102158000000400041a821006080780020509000d5
:1021680062c0b3000440bc0001e48000810041006b
:10217800f1e3880028c8210062c0b3000800780095
:102188000e400700843cef00f0e3800062c0b3001b
:10219800880078003e400700d18c210091407800eb
:1021a8000181fb00e98c210020c0b30000f17c0014
:1021b8000140e800cdf8b7000080fb001b4190000b
:1021c80002f07c0001c0e800cdf8b7000080fb00f9
:1021d8002b41900002f07c0063c040000080fb00af
:1021e8000cf07c0064c040004865de000080fb0005
:1021f8000af07c0065c04000cdf8b7000080fb0005
:102208004b41900002f07c0066c04000cdf8b7005a
:102218000080fb005b41900002f07c0067c040003a
:10222800cdf8b7000080fb00eb4590000bf07c0078
:10223800e8c040008000fd00cdf8b7008000fd0038
:10224800c88c21001844780010ff07008880fb0024
:1022580080f07c000840e9000080fb00a1c0b300ca
:1022680001f07c0008c0e9000080fb00f1be2100fd
:1022780011f07c00634054000080fb00e1be2100a7
:1022880011f07c00644054000080fb000af07c00e0
:10229800654054000080fb000cf07c006640540050
:1022a8000080fb008040eb0001f07c006740540098
:1022b8000080fb0091c0b30001f07c00684454002a
:1022c80008007800ccf8b700b0ca8000ec8057004e
:1022d80077ff07004f0678004f05be004f04be0089
:1022e8000080fa00000006000400fa00889fbe0083
:1022f8008a9fbe008c9fbe0000057800010678000a
:102308008206780001e48000f1e388002bc82100f0
:1023180062c0b3000b007800a83f07008a04780069
:102328000044eb00090037000844e800f1e38000ae
:10233800e6804000f1e3880062c0b3000b0078003b
:102348009e3f0700f04f54000600320010e4800062
:10235800890f5000f4ff3a00150037000084fb0095
:102368002000370001e48000f1e3880062c0b30078
:102378000b007800913f07000044eb00090037008c
:102388000844e800f1e38000e6804000f1e38800bb
:1023980062c0b3000b007800883f0700f04f54007c
:1023a8000300320020e48000e30f5000f4ff3a00fd
:1023b800884e78008000eb0042a821000500370015
:1023c8000040e8008100e8000281e800e48f500046
:1023d800e2ff320001407800010478001200e000ba
:1023e800f7ff3a00004e780040c1b3000f430700e2
:1023f800000178008800440040a82100823078005d
:102408000200e00002003a00020078001b003700da
:102418001ae488001a0020002ae48800f0e380000b
:1024280062c0b3008b007800993f0700080444009d
:1024380040a82100000444009800780000c0eb0088
:10244800805098009804780070805700e842070090
:102458000fb897009fb89700808cbe0018007800ce
:102468009d4678002d509800980078000000eb00f9
:10247800e0009800a03aa8000a0078004f06be00c5
:102488004f05be004f04be000080fa0000000600a1
:102498000400fa00889fbe008a9fbe008c1f780047
:1024a800000678000000eb0041aa21000500370073
:1024b8000844e8000000e8008180e800e70f5000c9
:1024c8000500320000447800800478001100e00024
:1024d800f7ff3a0003003700e74f54002c003200a2
:1024e8008884fb0000c3b300d04207008980440001
:1024f800648540000baa210000b57d000000e000c3
:1025080023003200084e7800ea807d0000c0eb000e
:10251800c04898006a847d006e805700b442070066
:102528001fb89700afb8970070049800010c980086
:10253800100c9800210c9800ea807d00310890006a
:102548000050a100b00898006a817d003208900010
:1025580001ff2f00010060000010a0003009980062
:102568000001eb008a0078000b02780033c0b3004a
:1025780061007a0002004000735098000201e800f0
:10258800f90f5100faff3a0010002000010037004f
:102598000000eb004f0678004f05be004f04be0058
:1025a8000080fa00000006003b5de20019003a00d6
:1025b800d41bab0014003200a0c9210031c1b30004
:1025c80090cf100010003e004e39ab0002003a00d8
:1025d800a17aab000a00320020c9210041c0b30033
:1025e80090cf100008003e00b0c9210051c0b300d0
:1025f80090cf100004003e00a19aab0002003a0000
:1026080010c0b300010037000040eb000080fb0061
:1026180000000600a0c9210031c1b30090cf10000e
:1026280010003e004e39ab0002003a00a17aab0020
:102638000a00320020c9210041c0b30090cf100029
:1026480008003e00b0c9210051c0b30090cf10006f
:1026580004003e00a19aab0002003a0010c0b3008b
:10266800010037000040eb000080fb00000006007e
:10267800889fbe008a1f780060e4800040e48800dc
:10268800eac921000004eb0041e4800022c1b30044
:102698000a007800c93e0700ad3cab0002003a00d2
:1026a8000880fb000600370020012000883cb400a9
:1026b8000804e800f90f5400f3ff3a000800780016
:1026c8004f0578004f04be0000000600d108200026
:1026d800e24f50001000320006003e00d1432100b6
:1026e8000004e0000c003200e14f500007003a00ff
:1026f8000800370051012000e34f50000600320067
:1027080011002000e44f5000030032008000eb006d
:1027180001003700d13520000100780000000600d4
:10272800889fbe000004be000204e00007003200db
:10273800810f5000070031000240e900e3ff070065
:1027480000004400808f5400020031001000200077
:10275800010037000000eb004f04be000000060037
:10276800889fbe008a9fbe008c1f78008004780076
:102778000106780060e4800040e48800eac921008e
:10278800890578000044eb0041e4800022c1b300d1
:102798000a007800893e070060e58000002cb2003e
:1027a80001242000810f50000e003a0033e580001c
:1027b800838f550007003200925cec0000417800de
:1027c8008900780003007800d5ff07000004e000c6
:1027d8000400320030e58000000e78001000200070
:1027e8001200370020012000883cb4000844e800ab
:1027f800f94f540005003200e3ff370030df800056
:10280800000e7800100020000800370022c92100bf
:102818001241780070df800089007800c0ff07004f
:102828000004e000f5ff32000000eb004f067800de
:102838004f05be004f04be00000006000004e00083
:1028480022003200d57bef0010c2b300d6fbb700e0
:1028580021c92100914078004309dd000200780079
:10286800d7fbb700a0c9210033c1b30090cf110036
:1028780016003e0000c9210083c1b30090cf1100ab
:1028880012003e0003d5800003b8a30006003a00fa
:10289800e4cf50000d003e00024078000074a00014
:1028a800d7fbb70002003700e4cf500007003e0016
:1028b800b0c9210051c0b30090cf100003003e0002
:1028c80003c8a30001003a00d75ba8000000060077
:1028d80062e5800082007800010cb200000420004c
:1028e800808f500009003a009a7ced0002007800c1
:1028f8000003b200f00f500001003a009b7ced008d
:1029080010c0b300cdff0700040037000100e0004d
:1029180002003a0090c1b30091fcb700ad3ca90099
:10292800aa3cef00ac3cef0040e4800022c1b300b9
:10293800e1c92100563e0700907ced0050e480007c
:1029480002c1b300e1c82100513e3700e0c92100af
:1029580061952100070009003158780060df800088
:1029680040e58800aefcef004e39ab000a003a00a3
:10297800ac9ca900acbca800b0e4800030e588009d
:102988000000e800b0e48800e20f400010003a00c0
:10299800a17aa8000e003700ac9ca800acbca90026
:1029a800c0e4800030e588009b7cec00a2e4800055
:1029b80002004000c0e488006611b90071df8000a1
:1029c80001014100820f500001003600a19aa800c1
:1029d80071ca8000c508dd000110b20060e5800002
:1029e8000080a1000100700060e58800acdca80050
:1029f800acfca900ad3ca80040e4800022c1b300b3
:102a0800e1c92100223e07009a7cec00907cec0092
:102a180050e4800002c1b300e1c821001c3e070059
:102a280010c0b30085ff3700889fbe008a9fbe0094
:102a38008c1f7800800578000106780060e480002b
:102a480040e48800eac921000004eb0041e480006a
:102a580022c1b3000a007800d83d0700ad3cab00a6
:102a68000800320030e580008b0f500005003a0066
:102a780040e580008c0f500002003a000880fb00ff
:102a88000600370020012000883cb4000804e80054
:102a9800f90f5400edff3a00080078004f0678005f
:102aa8004f05be004f04be00000006000a00fa00f1
:102ab800889fbe008a9fbe008c1f78000044780063
:102ac800014678008000eb0082ab2100050037004a
:102ad8000040e8008100e8000281e800e68f50002d
:102ae8000500320001407800010578001200e0007e
:102af800f7ff3a0003003700e64f50002f0132007d
:102b08000085fb00c0c0b300484107008000780082
:102b18000a004500f80440000baa210081b47d009a
:102b28000100e000250132000804e0004e003200f8
:102b380070df8000a000980069807d00f1ca8000e5
:102b48003100980069817d00ccd8bf00cd58b50010
:102b580071c8b300014040002041980069807d00a1
:102b68002040900031410700000478000000e00098
:102b780005003a0069807d002e41070088b47d0079
:102b8800400020000e0137000a0045007800400090
:102b980001aa210060807800080878004660dd00fe
:102ba8000034a000004c78004fd9bf00004040001e
:102bb800104498005ed9bf0020449800f195210088
:102bc8009140780031449800eedbbf004044980003
:102bd800f1be210091407800514498006c95210085
:102be8001c4678006c44980068d9bf00704498006f
:102bf80068014400c18c210091407800e0c7b3000f
:102c080080cf50000a003e00e48c2100804178000b
:102c18000140e800ccf8b7000080fb0060597a005a
:102c2800c18c21009140780083cf5000f8ff360016
:102c3800cd58ed00cdf8b700e14f40004700320015
:102c480082007800e38c210002c050000080fb0065
:102c5800e0d87900cd58ed00cdf8b700e14f40003d
:102c68003e003200f8ff3700c0ff2f005039b40093
:102c78000a0045007804400009aa210068807c0009
:102c8800b1ca800021009800e8807c005019ed004e
:102c980080ca880010407800f0409800e8807c00e6
:102ca8005019ed0080ca880010407800e040980074
:102cb80050b9ed004ed9bf00684040004ef9b7004a
:102cc800e8807c00a040980068807c00204090004c
:102cd800d6400700800578000000e0005d00320063
:102ce8000a0045007800400001aa210060807800b1
:102cf8000b0878006dfc0700f043b200c660dd00e9
:102d080080cd700069fc07009045980067fc0700bb
:102d1800a045980065fc0700b045980063fc0700d3
:102d2800c045980061fc0700d04598005ffc07008b
:102d38000046e900ec4598005cfc0700f045980067
:102d4800688445004e59e2000400320057fc070031
:102d5800005c78004e59e200fcff3a000a0045008a
:102d6800f80440000baa210069847d007280570096
:102d78009f4007007fb097008fb8970040049800e5
:102d88005104980069807d003000900074815700dc
:102d9800f380570054fd07000004e00009003a00e2
:102da80069807d0010007800a240070069807d00de
:102db800a04007000000eb0080b47d004000200028
:102dc8007f003700ca18a900f0c7b300ccf8b700d5
:102dd800cd78ef005fe897000080fb00000040001e
:102de80049a8210060847c00e0c0b3008f40070040
:102df80080057800600498000000e0001a003a009e
:102e08001000200020e48800f0e3800062c0b300d6
:102e180021c821001e3d07005fe897000080fb00e5
:102e28000000400060807c00824007005fe8970057
:102e38000080fb00000040000bb07c000a04450045
:102e48007804440009aa210068807c0010007800fa
:102e58007840070068807c00764007000bb47c004f
:102e680040002000560037005fe897000080fb0014
:102e78000000400048a8210060007c0071ab2100e0
:102e880091407800614898005fe897000080fb0057
:102e98000000400060007c0071df80004100980065
:102ea8005fe897000080fb000000400060007c00a5
:102eb8008044eb00794898005fe897000080fb00a9
:102ec8000000400060017c0012089000f18f2f0084
:102ed8000100600000a0a000100998005fe89700ba
:102ee8000080fb0000004000e0007c00110890001a
:102ef80000b0a1009008980010c0b300804d780081
:102f080000c8b30090459800b7dabf00a045980004
:102f18000040e800b7fab7000a0045007800400012
:102f280002aa2100e0007900e1409000b145980034
:102f38006000790070409000c0459800d94598001d
:102f4800d2fb0700e0459800fc459800efdbbf0086
:102f5800804d9800e1be210091407800914d980085
:102f680000c0eb00a04d9800c0cfb300b04d980052
:102f7800c94d980090c0b300d04d98006e8057009e
:102f88001b4007005fe897000080fb00000040003e
:102f980060027c001fb89700afb89700d21f2c00c2
:102fa800f3ff2f00000041008180490020029800b3
:102fb8003102980010002000010037004000200076
:102fc8004f0678004f05be004f04be000080fa008f
:102fd800000006000200fa00889fbe008a9fbe001b
:102fe8008045780001047800024578008304780061
:102ff8000100780013fc0700f94f50000a00320066
:1030080061e58000010cb20000042000808f5000b0
:10301800020032000100e00003003a00880c78004a
:103028000000eb002600370072df800004c8b30000
:10303800880178008040eb0001407800c6fb07005b
:103048000004e00015003200e24f550004003a0089
:1030580011c0b3000b40780094fe07001800370039
:103068006a8157000800be005dfb07000004e0000d
:10307800040032006ff097000004e00007003a00f7
:103088000e003700e14f550004003a008a407800ee
:103098000b40780085fe0700090037000800be00d5
:1030a800affd07000004e00004003a0010cdb300b3
:1030b8004ef9b70020002000010037000000eb00a7
:1030c8004f05be004f04be000080fa000000060055
:1030d800889fbe003000200020e4880082bcef00fa
:1030e80000e48000f0e3880029c821000044eb00d8
:1030f800f0e3800062c0b30089007800643c0700f8
:103108000844e800600020007e3cb400f04f540002
:10311800f7ff3a004f04be0000000600889fbe007b
:103128008a9fbe008c1f7800804578003008800098
:1031380002fbb700ca78ef0001d58000a03aef0083
:10314800a23aef00000022008080600000d58000d5
:1031580000d0a1000100700000d5880040b0210017
:103168000041eb0001b52100024878000080e8002a
:10317800808f5000fcff3a000b04e00004003a0086
:10318800f0d680000000e00001003200a93f0700ef
:103198000000eb00f0d68800800478004aaa2100dd
:1031a8000caa21000b04e000020032000904780098
:1031b80008003700090478001a0078000000e000d1
:1031c80004003200100078009a3f07001a007800c7
:1031d800983f070008004400640040008000eb00ae
:1031e80001307e008904e8000a85e800e78f540072
:1031f800ecff3a00810478008aab21000caa210078
:103208000b04e000020032000904780008003700cf
:10321800090478001a0078000000e0000400320079
:1032280010007800833f07001a007800813f0700ec
:1032380008004400780040008000eb0001307e0068
:103248008904e8000a85e800e68f5400ecff3a009c
:10325800810478004aa821000a0678000b04e000df
:1032680002003200090478000500370009047800dc
:103278001a0078000000e000010032006d3f0700ee
:10328800080044000c0040000008eb008904e80036
:103298000a85e800e48f5400f0ff3a008cff07002d
:1032a8004f0678004f05be004f04be000000060020
:1032b80010c0b30099ff070051e4800002c1b300b9
:1032c800e0c82100bd3b070071e48000c0532a001c
:1032d800808f500002003200a0fa07000500370076
:1032e80010c9210091c1b30090cf10000100320035
:1032f800cab8a800e0a821000041eb0021aa2100db
:103308000248780064004000810f5000fcff3a003a
:1033180060ac21000081eb00e1ad210002087800db
:1033280064004000808f5000fcff3a000000060057
:103338000800fa00881f7800ea805700c2e92800d0
:1033480007000900b25878008100b1000004eb00c2
:1033580082002000bbf507000000e00001003a00f1
:1033680018002000080078004f0478000080fa0058
:1033780000000600889fbe008a9fbe008005780076
:1033880060e4800040e48800eac921000004eb0002
:1033980041e4800022c1b3000a007800873b07009f
:1033a800ad3cab000800320082002000e1c92100da
:1033b8000b007800a3f507000000e00002003a00c7
:1033c8000880fb000600370020012000883cb4007c
:1033d8000804e800f90f5400edff3a0008007800ef
:1033e8004f05be004f04be00000006002f05b000c8
:1033f800889fbe008a9fbe008c9fbe008e1f7800eb
:103408008045eb0000047800a1fb2f0001804700f5
:10341800f73e07005f999700ef999700e2b79f0082
:10342800f3b79f00a05aab000f00320094d580007c
:10343800a5d58000040251008582590062ab2100a5
:10344800124178000281fb000300200040422f0057
:103458000010b800800f5200818f5a000200360019
:10346800d41ba900a05aa9000800e00067043a008c
:10347800cad8bf000008a30049113a00a01aab003f
:10348800620132006fb29700ffb29700d4af9f007d
:10349800e5af9f00880678004caa21000d07780048
:1034a8000c0578001c0478000800e0004801320090
:1034b80018089000a80890005faa9700efaa970044
:1034c8000001520081815a00030033000200be004f
:1034d8008ff4070009003700610061000100200037
:1034e8008301d1000281d300020070008380700044
:1034f80087f407000001be0026f4070002a02b0095
:10350800b375240080f407000000e00006003400d2
:1035180018007800c73e07001a007800c53e07006b
:10352800000deb002a013700380990000202b200b2
:1035380027013a000b10a100c84c9000f9cf5400a5
:103548005a0032008042eb0085e79f00e1cf44003b
:103558001b003a0078009000880890005faa970046
:10356800efaa97000000520081805a00357e25009e
:10357800850f5000e08f580002003e0082e79f0050
:10358800470037000080eb00b0979f000b10a000a9
:103598001a047800e6fb2f0006804700943e0700d7
:1035a8007f9897008fa09700100c9800210c980026
:1035b8008044eb0011c0b30081e79f00380037005a
:1035c8000984fb000940780022c1b3000440bc0014
:1035d80061e480008100410041e4880022c1b30019
:1035e800e0c92100f53a070062e580008200780012
:1035f8000120b20004003a00760044001a0040009e
:10360800114098001c0037009a0078004100900093
:10361800e40f400008003200e30f400002003a00c7
:103628000288a3000400320033e5800031009000d6
:10363800808f510005003a000980fb00008040009f
:103648008040eb00715098000b0037000288a300ff
:1036580009003a00b3979f008980fb00f68040007c
:103668009a804000114090000004a100904098000a
:1036780011c0b30081e79f008944e8000fe197007b
:10368800614061004200dd000b24a10080c5750087
:103698000b28a30002003a00f8cf5400c8ff3600f8
:1036a8001a00780049489800420037000b00a00033
:1036b8004e79ef001a0178008000eb000400370013
:1036c800014078008100e800f98f500005003200c1
:1036d80001004100705090000008a300f8ff32007c
:1036e80002003700f84f50002900320000cfb30025
:1036f8004ef9b7009a017800330890006f00600017
:103708002300320013089000a30890005faa9700d6
:10371800efaa97000000520081805a0035422f001e
:10372800850f5000e08f5800150036000b00a100ef
:103738000080eb00b0979f0033089000ef404000f6
:10374800ef80600002ff2f0002006000010070009f
:10375800b00998001a04780020fc2f000080470068
:10376800233e07001fa09700afa09700100c9800f9
:10377800210c980011c0b30081e79f0006003700b4
:103788000b00a1000041eb0082e79f000200370018
:103798008041eb0083e79f000fe2970061406200e1
:1037a8004200dd000b24a10080c575000b08a300b2
:1037b8001e003a008fe2970061c062004200dd00ff
:1037c8000b24a10080c575000b28a30080003200df
:1037d8000b18a300250032000e00470064004000cb
:1037e80006aa210060007b00b000900070df800016
:1037f800808f50001d003a000044eb0040b02100cb
:1038080061c2b300040037000844e8000080e80003
:10381800814f5400030032001004e000faff3a0020
:103828001300370010cfb3004ef9b7000e01470060
:103838006401410000aa2100e200780031409000b4
:1038480068f9b700310890000050a000b00898004f
:1038580001aa21006280780030089000430320000c
:103868000048a30040113a004d10370068c2b30069
:10387800c18c2100914078008181fb000e00470037
:103888006400400004aa210060017a0032439000dd
:10389800e58c210086f17a000140e900ccf8b700f8
:1038a8000080fb00c241900003f07a0001c0e900eb
:1038b800ccf8b7000080fb007242900004f07a0058
:1038c80063c05000ccf8b7000080fb006243900052
:1038d80006f07a0064c05000ccf8b7000080fb0006
:1038e8009249900003f07a0065c05000ccf8b70008
:1038f8000080fb00024a900004f07a0066c0500085
:10390800ccf8b7000080fb00224b900006f07a004c
:1039180067c05000ccf8b7000080fb00b2499000a7
:1039280003f07a00e8c0500001007800ccf8b70036
:103938000042eb00a4679f009201780022409000ab
:103948000004e0000d00320005027800cdd8bf0069
:103958008080fb00b342780085707a000040e80060
:10396800cdf8b7002f6397008640e800a1679f0055
:1039780022409000814f5000f4ff3e003f90970096
:1039880021fa2f008f804000c9f9070060c2b300f8
:10399800804f5400041032008880fb008180400072
:1039a80030b021002f619700827078000e00470028
:1039b8006400400003aa21006081790040b0210022
:1039c800324190008270780003012000e610370031
:1039d8008d06e8000c86e800e78f5600affe3a0037
:1039e8008040eb0040aa2100040037008140e80035
:1039f8000080e800e7cf5000030032001000e0002c
:103a0800faff320001003700a01aa900a03aab0063
:103a1800d60132006fb59700ffb597000001eb00a3
:103a280043a8210082027800930078000100e0009a
:103a380058003200610290000400e0005500320096
:103a48001108900000b8a30009003a002100900076
:103a5800b10090000000550081805d0026e0230041
:103a6800860f5000e08f58004a00360008003700e3
:103a780021009000b10090000000550081805d0099
:103a880076fc2a00860f5000e08f5800410036006f
:103a98000040eb00a0679f00e28c2100cdd8bf005a
:103aa8008080fb00b4417800837079000040e80012
:103ab800cdf8b7002f6397000640e800a0679f0085
:103ac800e54f5000f5ff36000040eb00a0679f006f
:103ad800e28c2100ccd8bf008080fb00b441780084
:103ae800837079000040e900ccf8b7002f63970095
:103af8000640e800a0679f00e74f5000f5ff36003a
:103b08008580420040a82100008440009800780089
:103b18001108900000b0a100900898009801780062
:103b2800130990004810de006740400067006000fd
:103b38004800dd00f18f2f000101610000017100d4
:103b480092099800180078006fb19700ffb19700ac
:103b5800220098003300980018017800920890001d
:103b6800007020008084600004003a006200900029
:103b7800303d0700180078006900980021fa2f00ee
:103b88008f8040000080eb0049f907000301200006
:103b9800751037000201e8008381e800e40f510046
:103ba800a0ff3a0048a8210088047800180278008d
:103bb8000400e0002200320034015500a4815d00b9
:103bc8008096280091002000800f5100818f5900b5
:103bd8001b0036002450900062c0b3000440bc00b3
:103be80001e4800081004100f1e388002cc8210035
:103bf80062c0b3000c0078007039070020e4800030
:103c0800e10f500006003a002000200020e4880060
:103c1800f0e3800062c0b3008c0078009c39070094
:103c280019007800600090000000e00001003200f8
:103c3800003d070019007800fe3c0700800ceb00ef
:103c48000884e800c0a82100880f5000d6ff3a0079
:103c58000040eb00a0679f0009aa21008005eb0047
:103c6800ea8c21000080fb00000040007800400042
:103c780060807c000000e0000a0132003000900003
:103c880023fa2f008f8141000381e800e48041007e
:103c980053f807000004e000870032004f619700e6
:103ca8000204e00079003a002f6297000480fb00cc
:103cb8000000400078004000e0817c00a3009000f4
:103cc8000044eb0070df8000808f500029003a002c
:103cd8000244780040b0210061c2b30004003700fc
:103ce8000844e8000080e800814f540003003200d7
:103cf8001004e000faff3a001e00370013007800b5
:103d08007040900068f9b70010cfb3004ef9b700c3
:103d1800af6297000580fb0000004000780040007b
:103d280060807c0010007800c23c07002f63970079
:103d38000680fb00000040007800400060807c00a6
:103d4800bc3c0700af6097000180fb00000040000a
:103d5800780040000bb07c00ca18a900f0c7b30077
:103d6800ccf8b7000b007800cdf8b700430320006b
:103d7800fd0f370093017800bb679f002f61970004
:103d88000280fb00000040007800400060807c005a
:103d9800204090000004e00012003200e48c210072
:103da8000280fb00000040007800400001aa2100ca
:103db80060817800cdd8bf008080fb00b3427800d6
:103dc80085707a000040e800cdf8b7003f609700a2
:103dd8000040e800b0679f00a240900080cf5000ec
:103de800f4ff3e003f90970036fa2f008680470088
:103df800aff80700af6097000180fb0000004000ab
:103e08007800400060817c00a200900070df800094
:103e1800808f500009003a000880fb000000400035
:103e280031b02100bf61970003f0780012017800db
:103e380041b021007241900002f078002f62970093
:103e48000480fb00000040007800400060807c0097
:103e580010007800773c0700af6297000580fb00f0
:103e6800000040007800400060807c00713c070042
:103e78002f6397000680fb00000040007800400098
:103e88000bb07c0003012000b70f3700e24f510050
:103e980084003a00af6097000180fb0000004000fa
:103ea8007800400060807c00a000900070df8000f7
:103eb800808f50001e003a002f6197000280fb009f
:103ec8000000400078004000e0807c00110078008d
:103ed8007040900068f9b7000b0078004ef9b70001
:103ee80011007800533c0700af6197000380fb0086
:103ef800000040007800400060807c004d3c0700d6
:103f08002f6297000480fb0000004000780040000a
:103f18000bb07c00ca18a900f0c7b300ccf8b700f2
:103f28000b007800cdf8b700430320008e0f370050
:103f3800c88c210018447800d4f707008880fb005b
:103f480080707d000840e9000080fb00a1c0b3003c
:103f580001707d0008c0e9000080fb00f1be21006f
:103f680011707d00634054000080fb00e1be210019
:103f780011707d006441540002007800ccf8b7004d
:103f88000281fb0021fa2f008f8040003180fb0066
:103f9800000040007800400060827c00d44290001d
:103fa80005717d0065405400ccf8b7000080fb0027
:103fb8004443900006707d00664054000080fb007a
:103fc8000b707d00674054000080fb0092c0b30076
:103fd80002707d006844540008007800ccf8b700ef
:103fe800d28c2100124178008281fb0030c0b300de
:103ff80080717d000240e8000080fb000b707d00ae
:1040080002c0e800cdf8b7000080fb00e441900052
:1040180003707d0063404100cdf8b7000080fb00cd
:10402800f442900005707d00644141000200780070
:10403800cdf8b700240090001df807002f63970003
:104048000680fb00000040007800400060807c0093
:1040580010007800f73b0700af6097000180fb0075
:10406800000040007800400060807c000b08780069
:104078002f6197000280fb0000004000780040009c
:1040880060807c00eb3b0700af6197000380fb007a
:1040980000004000780040000bb07c0003012000c5
:1040a800310f37002f6297000440e800a0679f0097
:1040b800e54f5000ebfe36008042eb00a5679f00fd
:1040c80006e48000f6e3880029c82100f1e38000b7
:1040d80062c0b300090078003838070028e480007f
:1040e800e20f5400160f32002f6097000040e800de
:1040f800a0679f00600020007e3cb400af6097007e
:10410800efcf5000f1ff36000040eb00a0679f00a2
:10411800b81ae20015003a00a1ab21000040e800ff
:10412800a0679f00e64f5000030032003100e00016
:104138000e003a00f9ff37000040eb00a0679f002f
:10414800841ae20009003a0061a821000040e80052
:10415800a0679f00e44f5000030032003100e000e8
:1041680002003a00f9ff3700a03aa90002d5800002
:104178000200e0000f003d00b0d78000c1d78000ea
:104188006fb29700ffb297000000520081805a007a
:1041980005802700850f5000e08f58000500360085
:1041a800a0ccb3004ef9b70054b9ef00a303200028
:1041b800ed0e37000278a30011003200a0faa90022
:1041c80050dbbf004ef9b70051dbbf004ff9b70015
:1041d800c1da8000b1ca880002db800013db8000ee
:1041e800f2ca880003cb880024db800035db80001e
:1041f80014cb880025cb8800c3042000da0e3700d2
:104208000238a300e60d32000268a3000500320060
:10421800a0daa90010c0b3004ef9b700430220008d
:10422800d10e3700820078000102b200dc0d3a009e
:1042380070ae210095c1b30090cf12007b00320010
:10424800a1679f00e8c92100e7dabf0022c1b300d7
:104258000440bc0061e480008100410041e4880022
:1042680022c1b30008007800d437070060e5800059
:10427800002cb20001242000810f500002003200ff
:10428800e77aec000200370010c0b300a0679f0077
:10429800e7dabf00f84f500004003e002f63970094
:1042a8000604e00004003a00e7ff3700af6097001b
:1042b8000104e000630032000040e800e7fab700bc
:1042c8000040eb00a0679f0000427800e98c2100c5
:1042d800e5c92100c28c2100124178008041780094
:1042e800024478008280fb000480fb006700100015
:1042f80060c07a0080f07c000241e9000245780045
:104308008341e80003427800e7cf5100f4ff36000c
:10431800a3679f000001fd00ccf8b7000001fd0075
:10432800daf607008a80fb0080f07c000a40e9008a
:104338000080fb0011c0b30001f07c006340540012
:104348000080fb00f1be210011f07c0064405400a5
:104358000080fb00e1be210011f07c0065405400a4
:104368000080fb0071ca210011f07c0066405400f7
:104378000080fb0061ca210011f07c0067405400f6
:104388000080fb008040eb0001f07c00e840540016
:104398008180fb000101e80062c07c000034a000bd
:1043a80000f17c0090c0b30080f07c0069405400ac
:1043b800ccf8b700cdd8bf000081fb0041c0b300e6
:1043c80001f17c000040e800cdf8b70000c4b3005c
:1043d800a0679f00a13aab000200320000ccb300f6
:1043e800a0679f00a1baab0003003a002f619700b5
:1043f8000254a000a2679f00cdd8bf000081fb0037
:10440800e18c2100af61970003f178000040e800db
:10441800cdf8b70030e5800021fa2f008f804000ea
:1044280023f70700030120004f0e3700a13aa90027
:104438009a7cef0050e4800002c1b300e1c821007b
:1044480093370700a13aab00110032009a5ce200f2
:104458000f00320046d7800057d780006fb2970010
:10446800ffb297000603520087835a00a2e4800037
:1044780003002000f42f25000410b8006711b900cc
:1044880082804000800f5300818f5b00440d36000e
:10449800a0daa80085b62100c6e9280007000900af
:1044a800b65a78000040eb00a0679f0000427800f1
:1044b800e98c210085b62100c28c210012417800c8
:1044c80080417800024478008280fb000480fb0071
:1044d8006700100060c07a0080f07c000241e900ab
:1044e800024578008341e80003427800e7cf510095
:1044f800f4ff3600a3679f000001fd00ccf8b70069
:104508000001fd0061f607008a80fb0080f07c0056
:104518000a40e9000080fb0011c0b30001f07c00f4
:10452800634054000080fb00f1be210011f07c00c4
:10453800644054000080fb00e1be210011f07c00c3
:10454800654054000080fb0080c0eb0001f07c0057
:10455800664054000080fb00c1cfb30001f07c002e
:10456800674054000080fb008041eb0003f07c00b2
:10457800e84054008180fb000101e80062c07c0033
:104588000044a00000f17c0090c0b30080f07c00e3
:1045980069405400ccf8b700cdd8bf000081fb00bb
:1045a80041c0b30001f17c000040e800cdf8b7003d
:1045b800a3679f0000d580000098a3000600320082
:1045c8009a5ce20004003a0000a8a300020032004e
:1045d80000c8b300a0679f00cdd8bf000081fb00d2
:1045e800e18c2100af61970003f178000040e800fa
:1045f800cdf8b70021fa2f008f8040000080eb0033
:10460800abf6070003012000d70d3700f0fe2f009e
:10461800f1ff2f0008004000e08048001406200049
:10462800840f5000e08f5800dd0c3e000060010050
:10463800610037009e003700d90c3700d80c3700ce
:10464800d70c37002b073700d50c37005407370035
:10465800d30c3700d20c3700ab073700d10737002f
:10466800cf0c3700ce0c3700cd0c3700cc0c370000
:10467800cb0c37002a083700c90c3700c80c3700a4
:1046880032083700c60c3700c50c3700c40c370099
:104698005408370047093700c10c3700c00c3700f1
:1046a800bf0c370051093700bd0c3700bc0c370070
:1046b800bb0c37005209370059093700b80c3700ce
:1046c800b70c3700b60c3700b50c3700b40c370000
:1046d800b30c3700b20c3700b10c3700b00c370000
:1046e800af0c3700ae0c3700ad0c3700ac0c370000
:1046f800570a3700980a37009b0a3700b10a370073
:10470800cd0a3700350b3700470b3700e60b37006b
:10471800e90b3700a20c3700a10c3700a00c3700ba
:104728009f0c37009e0c37009d0c37009c0c3700ff
:104738009b0c37009a0c3700990c3700980c3700ff
:10474800970c3700960c3700950c3700940c3700ff
:10475800930c3700920c3700910c3700900c3700ff
:104768008f0c37008e0c37008d0c37008c0c3700ff
:104778008b0c37008a0c3700890c3700880c3700ff
:10478800870c3700860c3700850c3700840c3700ff
:10479800830c3700820c3700810c3700800c3700ff
:1047a8007f0c37007e0c37007d0c37007c0c3700ff
:1047b8007b0c3700c60b37000040eb00a0679f005a
:1047c80008aa21008081eb000081fb00c210dd00f7
:1047d800600220000100400060007c00e10f400002
:1047e8000900320001004400506090006859e3005d
:1047f80005003a004e59e200910c3a000100780099
:104808006002b00003307c00af6297000540e8000a
:10481800a0679f00e54f5000ebff36000043eb0018
:10482800a6679f0003dbbf006859e300820c3200d3
:104838001200200053b0210064022000a2679f00ec
:10484800840f51000700320082007800134078007e
:104858000101e8008381e8006859e300050032009f
:10486800f6ff370060c2b300804f51004c0c320095
:104878008280fb008180400040b0210061407800c8
:104888008001eb000004e0000200320068f9b70084
:1048980043032000af6097000180fb000000400048
:1048a8000041eb0041b0210002f078002e0d3700e6
:1048b8007ef50700a0ef9f0080f79f007bf50700bb
:1048c80080ef9f0090f79f0078f507000080fb00bd
:1048d80009f02f00090666000006760073f5070048
:1048e800e0e79f004800dd00f80f2000080666009a
:1048f800000676006df507000080fb0089856500dd
:104908008085750069f50700c0e79f004800dd0055
:10491800888565008085750064f50700a0e79f001d
:1049280062f5070090e79f000fed97000a427800b4
:104938000438a3000c0032000040eb00a0679f0081
:1049480000447800c9a7210058f507008880fb00bb
:1049580080f07c00af6297000544e800a8679f00dc
:10496800e74f5400f8ff36000a48a3000c00320055
:104978000040eb00a0679f000044780049a7210091
:104988004af507008880fb0080f07c002f639700c1
:104998000644e800a8679f00e74f5400f8ff360078
:1049a800f0ca8000e10f400002003200e50f460027
:1049b800340336000040eb00a0679f000b05780029
:1049c8000041780043aa2100930078000100e0002c
:1049d8000700320031009000800f550004003a00b3
:1049e800314090009fe0970080cf50004a0c320081
:1049f8000241e800a2679f008381e800e74f510069
:104a0800f1ff3a000ff1970063406100e14f500059
:104a180098023a0025f50700a0679f00e14f500073
:104a2800d1013a00a11aab00cf01320070df80003b
:104a38008a0f500003003a00082207008001eb00ab
:104a4800c90c370010c0b300806f9f0017f507002e
:104a5800906f9f0015f50700a06f9f0013f50700e2
:104a6800c06f9f0011f50700d06f9f000ff507007a
:104a7800004578008040e800e16f9f0070cdb300ea
:104a88006959e30002003e000140e800e06f9f0022
:104a980030cbb3006959e30003003e006f6897000c
:104aa8000040e800e06f9f00f0c8b3006959e300d8
:104ab80003003e006f6897000040e800e06f9f0029
:104ac800b0c6b3006959e30003003e006f68970061
:104ad8000040e800e06f9f0070c4b3006959e3002c
:104ae80003003e006f6897000040e800e06f9f00f9
:104af80030c2b3006959e30003003e006f689700b5
:104b08000040e800e06f9f00af6897001f6a9700b9
:104b1800ef9197000b01780010c0b3000ef5070065
:104b28000004e00004013200f0ca8000e10f4000f8
:104b380001013a000040eb00c0679f000b047800b9
:104b48008001eb0042a82100af6a970006003700f9
:104b58000440e800c0679f008301e8000281e80084
:104b6800e48f51004d003200034278009200780033
:104b78000100e000f6ff320061489000854f5000c8
:104b8800f3ff3a0041009000880f5000f0ff3a0010
:104b9800e3cf510041003e000380410049a82100b5
:104ba80060847c0060fc2f000080470010390700fb
:104bb8003fa29700cfa29700048cbe004f609700d9
:104bc8000080fb000000400060817c00f2489000fb
:104bd8006f689700814f50002d003e00b5ca8000d5
:104be800550198004f6097000080fb0000004000ce
:104bf80060807c006f6b9700764898004f60970044
:104c08000080fb0000004000e0807c006f68970097
:104c18000a40500090509800ef90970070df800095
:104c2800810f5000090032000100780005f50700e7
:104c3800f94f50007800320060e58000000cb200a7
:104c480001042000810f500073003a0083210700ff
:104c5800cad8bf000008a300510b3a00cf609700e4
:104c68000180fb000000400042a82100600079009c
:104c780010509000e06f9f0080fa2f0000814700dd
:104c88000b00780029f5070003012000360c3700d7
:104c9800722107008001eb00330c37006f909700fa
:104ca80051fa2f00018147008100e9008180470007
:104cb8008df507000004e00003003a0067210700b3
:104cc8008001eb00280c37004f6097000080fb0044
:104cd8000000400041a82100608078002f699700fb
:104ce800624898004f6097000080fb000000400079
:104cf800608078004b0098004f6097000080fb00b0
:104d08000000400060807800b3ca8000530098001b
:104d18004f6097000080fb00000040006080780032
:104d28006f6a9700744898004f6097000080fb00f6
:104d3800000040006081780052009000880f500009
:104d48000600320012089000f18f2f000100600069
:104d58000080a00010099800050037001208900094
:104d6800f18f2f00010060000030b3001009980097
:104d78004f6097000080fb000000400042a821001f
:104d8800e00079001108900000b0a0009008980099
:104d98004f6097000080fb0000004000e0007900b1
:104da8006f6897000a40500090509800ef90970065
:104db80070df8000810f5000090032000100780088
:104dc800a0f40700f94f50001300320060e580009e
:104dd800000cb20001042000810f50000e003a00c0
:104de8001e210700cad8bf000008a300ec0a3a0039
:104df8006f6897000a405000e06f9f00cf609700ef
:104e080085fa2f00058147000b007800c7f40700da
:104e180003012000d40b3700cad8bf000008a30044
:104e2800d1003a004f6097000080fb00000040006e
:104e38004aa82100e0047d00690490000800e00011
:104e48000a003a00e0c0b30078380700e004980090
:104e58004f6097000080fb000000400060007d006c
:104e6800600490000800e000300032000f6b9700eb
:104e7800064c78001f68970010449800af689700a8
:104e8800214498004f69970032449800df699700e1
:104e9800434498006f6a970054449800fbf3070056
:104ea80060449800afe297000540e900704498001c
:104eb8004fe39700064c98001b4c98006fe0970052
:104ec800204c98003c4c98008fe89700414c980083
:104ed8002fe99700524c98004f6097000080fb0024
:104ee8000000400049a8210060847c00a0fc2f003d
:104ef800008047003e3807005fa29700efa29700a6
:104f080024049800350498004f6097000080fb0047
:104f18000000400060817c0012089000f18f2f0093
:104f28000100600000a0a00010099800cb20070035
:104f38008001eb008c0b3700b0ca800041f40700f9
:104f4800f94f50000f00320060e58000000cb200fd
:104f580001042000810f50000a003a00b3ca800003
:104f68008b8f510012003200925cec0000417800f7
:104f78008b00780003007800e9f507000004e000e2
:104f88000b003a00b1ca800030df8000808f5000eb
:104f980072003a0022c921001241780070df8000b7
:104fa8008b007800def507000004e0006b003a0093
:104fb800ef90970070df8000810f500009003200e9
:104fc800010078001ff40700f94f50001300320069
:104fd80060e58000000fb20001062000810f50003c
:104fe8000e003a009d200700cad8bf000008a300a1
:104ff8006b0a3a006f6897000a405000e06f9f0004
:1050080081fa2f000181470041c0b3000b007800ee
:1050180046f4070003012000530b370062fa2f0003
:10502800828047000c007800cdf507000004e000fe
:1050380047003200cad8bf006145600044003a000a
:10504800d18c2100914078000180fb00e98c21007f
:105058008f69970003f07c000140e8000080fb00a6
:105068001f6a970004f07c0001c0e8000080fb0084
:10507800af6a970005f07c0063c040000080fb0029
:105088003f6b970006f07c0064c040000080fb0086
:105098004f69970002f07c0065c040000080fb006b
:1050a800df69970003f07c00e6c040008000fd0047
:1050b800cdf8b7008000fd00c88c210018447800a6
:1050c80072f307008880fb0080f07c000840e9004c
:1050d8000080fb00a1c0b30001f07c0008c0e9001b
:1050e8000080fb00f1be210011f07c0063405400f9
:1050f8000080fb00e1be210011f07c0064405400f8
:105108000080fb006fe2970004f07c0065405400cb
:105118000080fb000cf07c00664054000080fb001f
:105128000af07c00674054000080fb0091c0b30087
:1051380001f07c006844540008007800ccf8b700ff
:105148003f90970021fa2f008f804000d8f3070086
:105158004220070003012000030b37003f2007000f
:105168008001eb00000b3700af629700e4cf5200dc
:10517800bd003a004df30700804678000b07780021
:1051880070df8000808f550003003a00332007004d
:105198008001eb00f40a37002fe39700e14f53003a
:1051a8008700360051fa2f0001804700b8f4070045
:1051b8000004e000750032005f6097000080fb008b
:1051c80000004000640040000aaa2100e0007d00c1
:1051d800310890000040a100b00898005f60970077
:1051e8003cf307005f6097000080fb000000400070
:1051f8006400400060007d00e294210012417800c4
:10520800224098005f6097000080fb00000040008b
:105218006400400060007d008ff1970033489800db
:105228005f6097000080fb000000400064004000c1
:1052380060007d001ff29700244898005f60970087
:105248000080fb00000040006400400060007d001a
:105258004c0098005f6097000080fb000000400051
:105268006400400060007d003b0098005f6097008c
:105278000080fb000000400064004000e0007d006a
:10528800afe297000540e900c04098005f609700d2
:105298000080fb00000040006400400060007d00ca
:1052a8001fe39700364098005f6097000080fb007e
:1052b800000040006400400060047d004ed9bf003b
:1052c8005a37070080047800000c78000000e000de
:1052d8000e003a005f6097000080fb00000040006d
:1052e8006400400060007d00523707005f6097004f
:1052f8000080fb00000040006400400009307d0091
:10530800d61f070089017800970a37000040eb0094
:10531800a0679f005f6097000080fb0000004000ce
:105328006400400001aa21006080780090007800a5
:1053380040c0b3008048780010c0b300a0679f0049
:105348004e59e2000f0032000aaa2100af6497000c
:105358005f6097000080fb00000040006400400090
:1053680060007d000984fb0010044400cff20700b0
:10537800004c78008944e800a9679f004e59e20074
:10538800f2ff3a00a01aa8000d003700b31f07006b
:105398008001eb00740a37007cbcef00af60970017
:1053a8000181fb006a11b90002007800701cb4008a
:1053b800a2c0b30088007800b53307002200370088
:1053c8000e0078001ff30700a0679f00f94f5000f8
:1053d800250032003ef50700a01f07000040eb0043
:1053e8004ef9b700e2952100e3c921000700090042
:1053f8003359780064952100e5c9210007000900a8
:10540800355a7800a0679f0048c72100a2c0b300a2
:105418000440bc0081e3800081004100a2c0b300c9
:105428000800780065330700e0e38000800f57002c
:10543800d9ff32002f6397000640e800a0679f005d
:10544800e74f5000f1ff3600c30320000d68a300aa
:10545800450a3a0001c2b30001c066004ef9b70020
:10546800d3042000400a37007c1f07008001eb00ae
:105478003d0a37002fe19700e14f510078003600d0
:1054880053fa2f000380470001f407000004e000ee
:10549800700032005f6097000080fb000000400051
:1054a800640040000baa2100e0807d0031089000d4
:1054b8000040a100b00898005f60970085f20700df
:1054c8005f6097000080fb0000004000640040001f
:1054d80060807d00e4942100144278002440980004
:1054e8005f6097000080fb000000400064004000ff
:1054f80060807d008ff29700354898005f609700c4
:105508000080fb00000040006400400060807d00d7
:105518001ff39700264898005f6097000080fb0003
:10552800000040006400400060807d004c0098004e
:105538005f6097000080fb000000400064004000ae
:1055480060807d003a0098005f6097000080fb0053
:105558000000400064004000e0807d002fe19700db
:105568000240e900c04098005f6097000080fb009f
:10557800000040006400400060807d009fe19700cb
:10558800334098005f6097000080fb0000004000f7
:105598006400400060847d004ed9bf00a336070038
:1055a80080047800000c78000000e0000e003a004b
:1055b8005f6097000080fb0000004000640040002e
:1055c80060807d009b3607005f6097000080fb00cd
:1055d800000040006400400009b07d001f1f070064
:1055e80089017800e00937000042eb00a4679f00ba
:1055f8008bca8000ec9421001c4678000c04e00063
:105608000f0032000daa2100af6497005f60970079
:105618000080fb00000040006400400060807e00c5
:105628000984fb001004440020f20700004c7800b5
:105638008944e800a9679f004e59e200f2ff3a004a
:105648008bca88000c0078004ef9b700a01aa80091
:1056580003003700011f07008001eb00c209370073
:1056680070df80008a0f500003003a00fb1e07001d
:105678008001eb00bc093700baca88005303200038
:10568800b90937008ff2970063c06200e14f5000fc
:105698003d023a0005f2070080407800a0679f00ad
:1056a800e64f500053003200e74f500004013a0023
:1056b800a1faa900fdf107000080fb0001f02f000e
:1056c8000104640000047400f8f107004800dd00dc
:1056d8000884fb0000047400f4f10700004578001a
:1056e800de1e0700c0a7210011f707000004e00034
:1056f800ab083200d0bd21001ef70700f94f50005b
:10570800150032000043eb00a6679f0060e48000ac
:1057180040e48800e9c921000c20200041e4800011
:1057280022c1b30009007800a432070060e58000b8
:10573800002cb2008c0f500007003200af609700b9
:105748008140e800a1679f0020012000883cb40048
:10575800f8cf5000f1ff36000a04e00005003200df
:10576800ca78a9000a0078004ef9b700a303200000
:105778007d09370078df8800c21e0700acdca9006d
:10578800acfca900d3bd210044a7210007000900f3
:10579800b45978003bdf88004fe09700a7fcb700ba
:1057a8000b007800a6fcb700a2d38000b3d380001a
:1057b800f2e4880003e58800c4d38000d5d38000d4
:1057c80014e5880025e5880040e4800022c1b30084
:1057d800e1c92100ae3207004e79ef00a8ca88005f
:1057e80065df800035cb8800a11aa800a30320003c
:1057f8005d093700adf107004ef9b700971e0700a5
:10580800d18c2100914078008181fb0072c0b300e7
:10581800e08c2100827178008140e8000100780066
:10582800cdf8b70040a72100d2f60700f94f500085
:1058380020003a0010c0b3003bfdb7005af3070040
:105848000004e0000400320089f30700a0679f000d
:10585800f94f500015003a00d28c2100124178000f
:105868008280fb00e38c2100d0cfb30080f0790068
:105878000240e8000080fb0080c0eb0001f07900e6
:1058880002c0e8000080fb0021c0b30001f07900ed
:105898006341410002007800cdf8b7000040eb00fa
:1058a8003bfdb700004678001400370027f40700d6
:1058b8003b7def00d28c2100124178000280fb0072
:1058c800e38c210061ca210011f079000240e80050
:1058d8000080fb0071ca210011f0790002c0e800c5
:1058e8000080fb008040eb0001f07900634141003b
:1058f80002007800cdf8b7001cc0b30086b62100be
:10590800c0e9280007000900305b78000040eb0080
:10591800a0679f0000427800e58c210086b6210030
:10592800c28c210012417800804178008280fb00ff
:105938000480fb006700100060407b0080f07a0064
:105948000241e9008341e80003427800e7cf5100b3
:10595800f6ff360002007800ccf8b7000040eb00f4
:10596800a0679f0000427800e98c210045a721002c
:1059780080417800024478008280fb000480fb00ac
:105988006700100060c07a0080f07c000241e900e6
:10599800024578008341e80003427800e7cf5100d0
:1059a800f4ff3600a3679f000001fd00ccf8b700a4
:1059b8000001fd0035f107008a80fb0080f07c00c3
:1059c8000a40e9000080fb0011c0b30001f07c0030
:1059d800634054000080fb00f1be210011f07c0000
:1059e800644054000080fb00e1be210011f07c00ff
:1059f800654054000080fb00cfe0970001f07c0078
:105a0800664054000b4178000080fb000bf07c00de
:105a1800674054000080fb0081c1b30001f07c00a6
:105a2800684054000080fb0091c0b30001f07c0086
:105a380069405400ccf8b7000c04e00002003200c2
:105a4800a0faa80001003700a0faa9004ed9bf00ab
:105a580050fbb70010c0b30051fbb70031e5800020
:105a6800c1da8800a4d38000b5d3800004db8800a5
:105a780015db8800c0d38000d1d3800020db8800ec
